:020000040800F2
:10000000F0FF0010F1FD0608D56E060851EC00085F
:1000100091FE060891FE060891FE06080000000009
:10002000000000000000000000000000D96E06087B
:10003000DD6E060800000000E16E0608B1A40008AD
:1000400091FE060891FE060891FE060891FE06083C
:1000500091FE060891FE0608C9BD0008EDBD000826
:1000600011BE000835BE000859BE00087DB8000862
:1000700091B80008A5B80008B9B80008CDB80008C4
:10008000E1B80008F5B8000891FE060891FE0608E0
:1000900091FE060891FE060891FE06087DBE000846
:1000A00035D1000895D0000845D1000885D000085A
:1000B000BDD00008CDD00008DDD0000819B200087E
:1000C00029C8000821B200082DC8000891FE0608C2
:1000D00091FE06085933060859340608813506088A
:1000E000B9BE000891FE060831A3060855D10008E4
:1000F0000DD1000865D10008FDD0000809B900083D
:1001000091FE060891FE0608EDD0000891FE060853
:10011000A9360608D137060891FE060891FE0608A2
:100120001DB9000831B9000845B9000859B90008DF
:100130006DB9000891FE060891FE060891FE0608BA
:1001400091FE060891FE060891FE0608E56E060877
:1001500081B9000895B90008A9B90008F93806085E
:1001600029B2000831C8000891FE060891FE060871
:1001700091FE060891FE060891FE060891FE06080B
:0801800091FE060891FE06083D
:1080000010B40C4B4FF0E02C1A68DCF8180019681B
:108010008A42F9D159688842F6D89C684FF47A713F
:1080200001FB04F31B1AB3FBF4F35DF8044B01FBF3
:1080300002307047401B0020074BD0F8EC105B6803
:10804000D0F8F8205B1A9A42B8BFC0F8F830012384
:1080500080F8243100207047001000E0C44A2C2131
:1080600001FB00212DE9F041CB685B68B3F814C037
:108070001CF0010F40F081805FFA8CFE1EF0020FB1
:1080800049D0BFF35F8F91F82840012CE5B200F092
:10809000F6804400198BBFF35F8F2C2101FB002178
:1080A00091F82850022D00F017812C2101FB0021AE
:1080B00091F82850032D09D191F82A1031B12118D7
:1080C000114491F89050002D40F07081998889B248
:1080D00041F4806199802118114491F992E04FF0A8
:1080E0002C0C0CFB002C9CF828C00CF1010CF44566
:1080F0000FD121181144002481F8904091F891107B
:10810000002940F0E2802C2303FB0023002283F8A7
:108110002520BDE8F0811EF0040F6DD100EB400476
:1081200016191EF0400E96F992804FEA400400F0B6
:10813000E880B3F810C00F6B5FFA8CFC07F808C03A
:108140005FFA88F591F828C0691C49B286F8921048
:10815000CE1CB4458E4600F053814FF02C0C0CFB26
:10816000002C9CF82860B142B9D121180235114485
:108170006DB281F89250AE46B1E7B3F800C02CF46E
:10818000006C4FEA0C4C4FEA1C4CA3F800C01C8852
:10819000A4B244F480641C8000EB400C944491F839
:1081A0002A504FF0000E44008CF892E0002D54D07D
:1081B0009CF89050002D4CD021181144012481F8D6
:1081C00090402C2101FB002191F82810022904D1B4
:1081D000198889B241F4006119802C2101FB00212A
:1081E00091F8261041F0010119822C2303FB002293
:1081F00092F82830BDE8F08100EB4005154491F875
:108200002A604FF0010C440085F891C0002E7ED00A
:1082100095F89060002E7FD12C2101FB002191F870
:108220002910002900F0C580198889B241F4007135
:1082300019802118114491F892E00EF1010E4FFAC5
:108240008EFE81F892E0B3F800C01CF4807FFAD172
:1082500045E791F82710FF29AED02C2101FB002122
:1082600091F8265005F0FE051D8291F82730FF2B6E
:10827000BBD021181144FF2381F89230B5E791F863
:108280002A10440000293FF405AF00EB40011144DF
:1082900091F89060002E3FF4FDAE1E8826F48066B3
:1082A0003604360C1E80BFF35F8F81F8915091F930
:1082B00092E01D8B198889B241F400711980998868
:1082C00089B241F48061998009E7998821F440716D
:1082D0000904090C998016E791F82A1000293FF447
:1082E000E4AE2118114491F89050002D3FF4DDAE1A
:1082F00091F992E0198821F480610904090C198030
:108300004DE01FFA8CF52D0634D4C646E7E695F805
:108310009010002980D087E791F828600F6B022E1B
:108320001E8853D926F480663604360C1E801E8AB9
:1083300095F992C0F6B207F80C600F6B198889B2F4
:1083400041F4007119805FFA8CFC1E8A0CF1010166
:1083500049B2F6B27E5499880CF1020E89B24FFAF6
:108360008EFE41F4806185F892E099806BE700BF52
:10837000401B0020B8F1FF3F49D0CD6A15F808C076
:108380005FFA8CFCA3F810C091F8281008F10105E1
:108390006DB2A94286F89250AE467FF4A0AE99889D
:1083A00021F480610904090C998098E691F992E022
:1083B000F5E7198889B241F48071198021181144B8
:1083C000012591F992E081F890503CE7B6B246F46D
:1083D00000761E801E8A95F992C0F6B207F80C60EE
:1083E0005FFA8CFC0F6B1E8A0CF1010149B20CF193
:1083F000030EF6B24FFA8EFE7E5485F892E022E725
:108400009E8826F480663604360C9E80A5E691F898
:10841000274086F892E0E4B21C8291F82A4024B901
:1084200091F8281000297FF4E0AE998821F480614A
:108430000904090C9980D8E610B404698269E468DB
:108440004168146000234024C2E902344469936304
:108450000C31C2E90433C2E90633C2E90833C2E988
:108460000A33C2E90C33516094B1C269E468936382
:108470004FF48030C2E90041C2E90233C2E904335B
:10848000C2E90633C2E90833C2E90A03C2E90C3380
:108490005DF8044B704700BFD0E9001300221A605A
:1084A000037D1F2B07D9203B202202FA03F343F060
:1084B0001803CB607047202202FA03F343F018033D
:1084C0008B6070471B4B016803F57D7C02E02C3309
:1084D00063452CD01A688A42F9D170B593F804E04C
:1084E000427996450BD02C33634505D01A688A42F1
:1084F000F4D02C336345F9D14FF0FF3070BD9E4668
:108500008468DEF80C50A5424FF0000208D001321A
:10851000032A0EF10C0EE6D0DEF80C50A542F6D17F
:10852000DEF81050C668B542F1D150B270BD4FF0C0
:10853000FF307047102C0708002A4FEA014C30B575
:1085400003460ABFE6468E468C4600F1C00500246D
:1085500019689A6841EA0C0142EA0E029A60C3E97E
:1085600000140C33AB42F3D1D0F8C030C0F8C44093
:1085700043EA0E03C0F8C030C0F8C84030BD00BFA9
:10858000C3691969B3F80CC00A6830B49C6822F05A
:10859000010224680A60A28992B222EA0C02A28136
:1085A000027D00681F2A06D94568203A08249440B5
:1085B0002C4245D0FEE70568082494402C42F9D1AE
:1085C000202404FA02F28260264A1278002A35D06A
:1085D0001A7E012A39D0D3F8F4200132C3F8F420EE
:1085E000EFF31181502282F3128858685C6C0268A4
:1085F00022EA04029C6C2243C9B2026081F3118812
:10860000D3E90C401A6999681D6C096814605061BF
:10861000D3E90E40546090600024B3F8A800D56000
:108620004C62C86210680124204310601C7683F8F5
:10863000F1408A899B8913439BB28B8130BC704780
:10864000202404FA02F2C260BEE7002283F8F1207F
:10865000D3F8F8000A68013022F00102C3F8F800EC
:108660000A60EBE70400001010B40C4C6368002BA8
:1086700011DD002004F1080C0146DCF8A03003F104
:10868000C00259600C339342FBD1636801308342CE
:108690000CF5807CF1DC5DF8044B704704000010A1
:1086A000F0B5414C04EB401393F8243403B9F0BD0A
:1086B0003E4B93F8995093F89A2095424FEA401C0C
:1086C0000CD002EB420E03EBCE0E9EF89C60771EA0
:1086D000012F4FEA420E58D9032E51D004EB0C0063
:1086E000A0F80814EFF31182902383F3128890F816
:1086F0000A34B0F8081443EA41030021D2B29BB215
:1087000080F80A1482F311882178D0F820441A09DD
:1087100082EA13225A40C9B1D0F80C14D4F8A04010
:10872000D2431B019BB202F00F0201208840134389
:1087300004F1C0015A0013F4004F93B202D16268F1
:10874000024362600C34A142F4D1F0BDD0F80C14A5
:10875000D4F8A0401B0110319BB202F00F0201209F
:108760008840134304F1C0015A0013F4004F93B240
:1087700002D16268024362600C34A142F4D1F0BDC0
:10878000561C06F00306AE42A8D0964403EBCE0377
:10879000184490F8A9100029A0D004EB0C03012282
:1087A00083F80A249AE700BF04000010401B002051
:1087B000704700BF024B03EB401393F8250470474A
:1087C000040000104368B0F8502010B41A83EFF38F
:1087D0001182502383F312884168446C0B6823EAAA
:1087E0000403C46C2343D2B20B6082F31188D0E936
:1087F00007418268036912681C605961D0E9094128
:108800005C60C46A9960B0F86010DC600023D162DB
:108810005DF8044B0376704710B4037D02681F2B8C
:1088200009D95468203B202101FA03F31C4215D1D9
:108830005DF8044B70471468202101FA03F31C42D1
:10884000F6D00D494068002481F8FC4001685DF8CD
:10885000044B21F0010101609360704706494068B4
:10886000002481F8FC4001685DF8044B21F001010F
:108870000160D360704700BF401B0020104BDA68D6
:10888000D243C2F30222C2F1040301214FF00F0CC4
:10889000DBB201FA03F34CFA02F210B40A40094CBD
:1088A000DBB213431B012218DBB282F80033430909
:1088B00000F01F00814044F823105DF8044B70471E
:1088C00000ED00E000E100E010B4037D02681F2B22
:1088D00009D95468203B202101FA03F31C4215D129
:1088E0005DF8044B70471468202101FA03F31C4221
:1088F000F6D00D494068002481F8FD4001685DF81C
:10890000044B21F001010160936070470649406803
:10891000002481F8FD4001685DF8044B21F001015D
:108920000160D360704700BF401B00201223014844
:108930000B80704788010020042301480B8070479A
:108940009C0100201C48D0F8103AD0F8182A10B525
:108950009B184FF01A040C8001D1184810BD174A1B
:10896000D0F8140A02F1100411464FF0000E4FEA3D
:10897000137CB3F1204F34BF0CF1300C0CF1370CE9
:1089800081F802C081F803E002318C424FEA031300
:10899000EDD102F108040021030FB0F1204F34BFE4
:1089A000303337339374D174023294424FEA00105B
:1089B000F2D1024810BD00BF0070FF1FA0010020CF
:1089C000426A806A131A58425841704790F84F38EB
:1089D00030B53BB990F84D1890F84E380124DAB212
:1089E000914200D830BDB0F8565804FA03F22A4339
:1089F000A0F856280133F2E70379024613F001008C
:108A000005D0D369D068116A01385B1A18407047E5
:108A100010B50379DB07044601D4002010BDFFF731
:108A2000EBFF0028F9D0236A6269D05C236AE26810
:108A30000133B3FBF2F102FB1133C0B22362EDE765
:108A400003799B070AD5436A8269D154436A026954
:108A50000133B3FBF2F102FB1133436270477047FD
:108A6000017170470379024613F0020007D0536A80
:108A70001069916A01385B1A0340DBB2C01A704773
:108A800082B01D4B1D49002201920193019B0433CA
:108A90000193019B1A688B6803F00C03042B02D02E
:108AA000082B05D0164A174BC3F8002102B07047B7
:108AB00048684B68400203F03F0314D44A681049E9
:108AC000B1FBF3F3C2F3881203FB02F20B4B5B68BA
:108AD000C3F3014301335B00B2FBF3F2094BC3F86C
:108AE000002102B070474968B2FBF3F2C1F388136A
:108AF00003FB02F2EAE700BF5028004000380240C2
:108B00000024F400401B00204A484B494B4BDFF83F
:108B100030C12DE9F04F4FF0010A4FF002094FF03C
:108B2000040808271026202540244FF0800E30F836
:108B3000022B12F0010F03D01960A3F804A0083330
:108B400012F0020F03D01960A3F80490083312F05A
:108B5000040F03D01960A3F80480083312F0080F43
:108B600002D019609F80083312F0100F02D01960F4
:108B70009E80083312F0200F02D019609D800833C8
:108B800012F0400F02D019609C80083312F0800F61
:108B900003D01960A3F804E0083312F4807F05D0F5
:108BA0004FF4807B1960A3F804B0083312F4007FFF
:108BB00005D04FF4007B1960A3F804B0083312F419
:108BC000806F05D04FF4806B1960A3F804B00833B0
:108BD00012F4006F05D04FF4006B1960A3F804B0D5
:108BE000083312F4805F05D04FF4805B1960A3F85E
:108BF00004B0083312F4005F05D04FF4005B196035
:108C0000A3F804B0083312F4804F05D04FF4804B22
:108C10001960A3F804B00833D20B04D04FF400421B
:108C200019609A80083301F5806161457FF47FAF58
:108C3000BDE8F08F0430070800000240441C00200B
:108C40000018024010B584464FEA810E102312F43A
:108C5000004F14BF0E2407245200013BCCF8004003
:108C600092B2F444F3D100EB81128C01035142F82B
:108C70002130122010BD00BF10B584464FEA810E8E
:108C80000424130B03EB430318331201013CCCF80B
:108C9000003092B2F444F4D100EB01130A01845085
:108CA00043F82140062010BD704700BF704700BF49
:108CB000034B00EB400003EBC00393F8190570472A
:108CC00004000010064B93F8C825824283BF00EBD6
:108CD000400003EBC003D3F81C050020704700BF21
:108CE000040000101D4B93F8CC25AAB3D3F8081547
:108CF00009B100200860012A2ED0D3F8201509B14F
:108D000000200860022A27D0D3F8381509B10020C6
:108D10000860032A20D0D3F8501509B1002008605C
:108D2000042A19D0D3F8681509B100200860052A73
:108D300012D0D3F8801509B100200860062A0BD0A4
:108D4000D3F8981509B100200860072A04D0D3F899
:108D5000B0350BB100221A60704700BF040000104C
:108D60001D4B93F8CC25AAB3D3F8081509B1002000
:108D70000860012A2ED0D3F8201509B10020086020
:108D8000022A27D0D3F8381509B100200860032A39
:108D900020D0D3F8501509B100200860042A19D05A
:108DA000D3F8681509B100200860052A12D0D3F85D
:108DB000801509B100200860062A0BD0D3F8981559
:108DC00009B100200860072A04D0D3F8B0350BB1F0
:108DD00000221A60704700BF04000010B84B93F8DF
:108DE0003230002B40F06A81B64B93F8CC25002A34
:108DF00000F0648193F8181570B400294FD1D3F8AE
:108E000008150020012A086047D993F83015002979
:108E10006BD1D3F820150020022A08603DD993F8C1
:108E20004815002940F0D280D3F838150020032AD5
:108E3000086032D993F86015002940F0EF80D3F82C
:108E400050150020042A086027D993F878150029C6
:108E500040F00C81D3F868150020052A08601CD961
:108E600093F89015002940F03381D3F88015002045
:108E7000062A086011D993F8A81500295BD1D3F808
:108E800098150020072A086007D993F8C025002A02
:108E900077D1D3F8B03500221A6070BC7047D3F890
:108EA0000C05810AA1F580115229A8D8864C2144CD
:108EB00091F800140D29A2D8EFF31184502282F307
:108EC0001288824D466A828A4FF02C0C0CFB0151AD
:108ED00092B2013642F00102C1F82C64E4B28282FF
:108EE00084F3118893F8CC2589E7D3F82405810A07
:108EF000A1F5801152298CD8734C214491F80014AB
:108F00000D2986D8EFF31184502282F312886F4D19
:108F1000466A828A4FF02C0C0CFB015192B201364A
:108F200042F00102C1F82C64E4B2828284F3118819
:108F300093F8CC256DE7D3F89C05810AA1F5801143
:108F400052299CD8604C214491F800140D2996D8E0
:108F5000EFF31184502282F312885C4D466A828AB4
:108F60004FF02C0C0CFB015192B2013642F0010281
:108F7000C1F82C64E4B2828284F3118893F8CC2582
:108F80007DE7D3F8B4158A0AA2F58012522A80D858
:108F90004D48024492F800040D283FF67AAFEFF3F3
:108FA0001184502282F31288484D4E6A8A8A4FF00B
:108FB0002C0C0CFB005092B2013642F00102C0F8BA
:108FC0002C64E4B28A8284F3118862E7D3F83C050A
:108FD000810AA1F5801152293FF626AF3A4C21446F
:108FE00091F800640D2E3FF61FAFEFF31181502270
:108FF00082F31288354C456A828A4FF02C0C0CFBA8
:10900000064492B2013542F00102C4F82C54C9B2B0
:10901000828281F3118893F8CC2505E7D3F85405B3
:10902000810AA1F5801152293FF609AF264C21444F
:1090300091F800140D293FF602AFEFF3118450228E
:1090400082F31288214D466A828A4FF02C0C0CFB69
:10905000015192B2013642F00102C1F82C64E4B22F
:10906000828284F3118893F8CC25E8E6D3F86C0566
:10907000810AA1F5801152293FF6ECAE124C214431
:1090800091F800140D293FF6E5AEEFF3118450225C
:1090900082F312880D4D466A828A4FF02C0C0CFB2D
:1090A000015192B2013642F00102C1F82C64E4B2DF
:1090B000828284F3118893F8CC25CBE6704700BFF9
:1090C0008801002004000010102C0708401B00201D
:1090D000D3F88405810AA1F5801152293FF6C5AE67
:1090E0000F4C214491F800640D2E3FF6BEAEEFF315
:1090F0001181502282F312880A4C456A828A4FF00D
:109100002C0C0CFB064492B2013542F00102C4F86B
:109110002C54C9B2828281F3118893F8CC25A4E63D
:10912000102C0708401B002000EE100AB8EE400A81
:10913000704700BFBCEEC00A10EE103A98B27047FC
:10914000072809D8054B8C2202FB0033B3F8D00561
:10915000B0FA80F04009704700207047040000100A
:10916000072806D8034B8C2202FB0033012283F828
:10917000D22570470400001070B53F4C8C2303FBD0
:10918000004393F8DF3503B970BD3C4B93F899E089
:1091900093F89A2096450CD002EB420C03EBCC0CD2
:1091A0009CF89C506E1E012E4FEA420C44D9032DB0
:1091B0003DD08C2202FB0042A2F8D015EFF31181C2
:1091C000902383F31288B2F8D05592F8D23543EA4F
:1091D00045030025C9B29BB282F8D25581F31188AC
:1091E0001A09217882EA13225A4001B1D2431B01A5
:1091F0009BB294F8341AD4F8305A02F00F021A4392
:109200008C2303FB004431BB0121D4F85806A84746
:10921000D4F85416B4F8DC558A8AD4F850362A4368
:109220008A8258601A6842F001021A6070BD551CAB
:1092300005F003057545BCD0944403EBCC0303440F
:1092400093F8A9100029B4D08C2303FB004301221A
:1092500083F8D225ADE7D4F8D835D4F854165B7925
:10926000086903F0FC0318440421A847D4F85436D5
:109270008000988170BD00BF04000010401B0020DA
:109280007AE700BF072808D8044B03EB401393F894
:10929000242412B1012283F80A247047040000102C
:1092A000072808D8054B03EB4013B3F80804B0FABD
:1092B00080F0400970470020704700BF0400001094
:1092C000054B93F8C825824286BF03EB4013D3F8C1
:1092D00014040020704700BF0400001001234377EE
:1092E0000020704708B503468269006BD96A0244C2
:1092F0009A6101B18847002008BD00BF436A1B681E
:109300001B6A5B685B78024613F0010008BF507768
:10931000704700BFF0B5224C224A234B95B005465A
:1093200004F13C00CDE90002049304F14000002365
:10933000CDE90503CDE90E331C4A09920B9304F1E4
:1093400034021093139311936B6A2F7F0A9218685B
:10935000012302228DF80C3007938DF820308DF810
:1093600034308DF848303B1D02920E460C9364F069
:1093700087FB97B1330E84F835303634320C330A1C
:1093800022706370A670686A694658F069FF6B6A5C
:10939000186864F075FB15B0F0BD3534EEE700BF1A
:1093A00088010020AC210020FD920008DD92000819
:1093B00010B5044694B050220649684669F094F905
:1093C000606A694658F04CFF636A186864F058FB9D
:1093D00014B010BD64300708C2628161704700BFDD
:1093E0002DE9F0410446406A00681E460F4690464B
:1093F00064F046FB237FA069002B3DD0274D030E70
:1094000085F84530052205F146039870EA67020C9D
:10941000000A58701A703B68C5F888300020D8F8E8
:109420000030C5F89030012E2363C5F8A00028D085
:10943000022E1FD1D8F80420C5F89800796885F865
:109440009400C5F89C1013441549C5F8A4200120C8
:10945000236385F8A800C5F8AC10124B627F606AE0
:10946000A3F11401002A08BF194658F0F9FEE36A77
:109470007BB1206BBDE8F0810B4B0422A3F14505C5
:10948000C3E7074B85F89460C5E92630C5F8A4000A
:10949000E3E7636A186864F0F3FAEAE788010020FA
:1094A000E5920008E8010020CD010020704700BFD0
:1094B00000B583B081610192049A0093C2620123D6
:1094C0006A4601A9FFF78CFF03B05DF804FB00BFFB
:1094D000043070470D4B93F87426D3F8701602448D
:1094E000D2B283F8742693F8742601441206C3F8A6
:1094F000701605D593F8742682F0800283F87426DE
:10950000034B012283F8C420704700BF401B00209A
:10951000880100202DE9F047154FD7F87856ED0A5D
:1095200020D00026B14607F5D6687419D7F87C36E6
:109530001048D3F828A0C7F8A89604EBD474641098
:1095400010234246E102D0470F280BDD0A4B03F1FE
:10955000100153F8042B013207D18B42F9D1254673
:10956000B542E2DCE802BDE8F087661CF8E700BF20
:10957000401B0020BC210020F0210020194B19685D
:10958000D3F8C0268A1A322A05DCD3F8D4268A1AE0
:10959000002A0FDC704793F8C426D3F8C81602F0EF
:1095A000010219B108688988B2B901830022C3F8A1
:1095B000D4267047D3F8C82682B11068928810B4B8
:1095C00044693231224218BF42835DF8044B08BF20
:1095D0000283C3F8D41670474183E7E73231C3F8FA
:1095E000D4167047401B0020064AD2F8C8363BB15B
:1095F00092F8C4169A881B68C90754BF1A835A8305
:1096000000207047401B00204FF40070034B106097
:10961000D3F8E0360B600020704700BF401B0020ED
:1096200000207047012070470120704700207047DC
:1096300010B41C6994420CD394460A4661448C428F
:10964000996938BFA4EB0C0261445DF8044B69F0E2
:109650004BB85DF8044B704730B585B068465DF097
:109660004DF90F480F4AD0F8FC10009B0E4D41F009
:109670008071C0F8FC10002400F1C840C2F8B05F4F
:10968000A0F5650054601168084CA0F67D60A0FB51
:10969000030341F001019B0CA360116005B030BDD4
:1096A00000ED00E0001000E055CEACC5401B0020EE
:1096B0002DE9F84F01307E4C7E4D01F1FF385FFA05
:1096C00080FB1026012761F01FFF4FF4FA794FF05D
:1096D000E0214FF47A7C6B68C3F30803002B40F061
:1096E000C080EFF31183002B40F0BB8023688869B2
:1096F00022689342FAD162689042F7D8A2680CFBC4
:1097000002FEAEEB000EBEFBF2FE0CFB03EE6B683E
:10971000C3F30803002B40F08680EFF31183002B86
:1097200040F081802368886922689342FAD1626898
:109730009042F7D8D4F808A00CFB0AF2121AB2FB38
:10974000FAF20CFB0323A3EB0E03B3F57A7FDED30F
:10975000B9F10109BFD158464FF47A7962F088FB1C
:109760004FF0E021CC466B68C3F30803002B40F0B8
:109770008B80EFF31183002B40F08680236888698B
:1097800022689342FAD162689042F7D8A2680CFB33
:1097900002FEAEEB000EBEFBF2FE0CFB03EE6B68AE
:1097A000C3F308030BBBEFF31183F3B92368886994
:1097B00022689342FAD162689042F7D8D4F808A0A0
:1097C0000CFB0AF2121AB2FBFAF20CFB0323A3EB16
:1097D0000E03B3F57A7FE2D3B9F10109C3D1B8F131
:1097E0000108BFF470AFBDE8F88FEFF3118386F383
:1097F0001288D1F818A00A69D20344BFC4F81077C0
:10980000D1F818A02068D4F81027DBB283F31188B0
:109810000244A0680CFB00F3A3EB0A03B3FBF0F3D4
:109820000CFB0233D3E7EFF3118386F31288D1F8F0
:1098300018A00A69D20344BFC4F81077D1F818A061
:109840002068D4F81027DBB283F311880244A068A3
:109850000CFB00F3A3EB0A03B3FBF0F30CFB0233A6
:1098600071E7EFF3118286F3128888690B69DB03D5
:1098700044BFC4F8107788692368D4F810E7D2B2DF
:1098800082F31188734439E7EFF3118286F312886B
:1098900088690B69DB0344BFC4F8107788692368C3
:1098A000D4F810E7D2B282F3118873446EE700BF98
:1098B000401B002000ED00E02DE9F0411D4CDFF8D9
:1098C0007C801D4F82B004F54075012602E008340B
:1098D000A54224D094F90630002BF8D1206800F17D
:1098E0003F4303F57E0308EB932393F8A4345A090E
:1098F000032A03F01F0306FA03F317D0042A11D03A
:10990000022A02D17A6C13437B640023A1881A4691
:10991000CDE90036083464F03BF8A542DAD102B054
:10992000BDE8F0813A6B13433B63EEE73A6C1343B7
:109930003B64EAE7441C002000380240102C070872
:1099400009494B6C10B5094C43F480434B644022E9
:10995000002104F2147068F01FFF4FF0FF33C4F8C9
:109960005437C4F8573710BD00380240401B002060
:109970002DE9F0411348144D4FF41A72002168F09C
:109980000BFF4FF00008A5F2AC4705F6880440F243
:10999000222655F82810002354F8332091420BD08A
:1099A00001330E2BF8D1002008F1070861F062F9AD
:1099B000B045EED1BDE8F08107EBC30393F8380D55
:1099C000F2E700BF441F0020BC3007082DE9F84330
:1099D000038AB0F80C801FFA88F818EA030829D027
:1099E00005460E464FF00047B8FA88F327FA03F20F
:1099F000D24391B21B3B298208EA0208042B16D8F5
:109A0000DFE803F04134271A0300B36A002B47D084
:109A100003F1FF3900231FFA89F9B362746A34B184
:109A200023682046494698476468002CF8D1B8F16D
:109A3000000FD9D1BDE8F88370680028F7D003681B
:109A4000002BF4D0696B89B29847B8F1000FCBD1E5
:109A5000F0E7B0680028EAD00368002BE7D0A96BD4
:109A600089B29847B8F1000FBED1E3E7F06800284B
:109A7000DDD00368002BDAD0E96B89B29847B8F1E2
:109A8000000FB1D1D6E730690028D0D00368002B91
:109A9000CDD0296C89B29847B8F1000FA4D1C9E79D
:109AA000EB6A1FFA83F9B9E770B50B4C0546072638
:109AB000013E00D170BD94F9000016F007FF031EAF
:109AC00008DBEA1861789171A178E954052BDCBFB5
:109AD000E37813730434EBE7B439070810B5274B68
:109AE00093F8992093F89A309A4242D1244A92F8F6
:109AF000F80AF8B192F8344A02F6382300EB400035
:109B0000D2F8382A03EBC000B4B140F20D3C00E0BB
:109B10001A6899689C894C600C6844F001040C60D8
:109B2000A2F848C09189183389B241F48071834208
:109B30009181EDD110BD1A68118821F080010904CE
:109B40001833090C118033F8141CD162118889B2C2
:109B500041F0800111805462B2F80CC033F8041C4B
:109B600041EA0C0189B28342918123F8044CE2D18D
:109B700010BD65F075F80028B8D110BD401B00205D
:109B80000400001010B5044667F04CFC81B220467A
:109B9000BDE81040FEF784BD10B5044667F042FCF6
:109BA00081B22046BDE81040FFF7E6BA38B50B4D4C
:109BB00000EB400005F5A16303EBC00393ED027ACF
:109BC000D3ED037AE7EE007AC4002544B0EE670ACD
:109BD00067F028FCD5F80835186038BD040000107F
:109BE0000A4608B5054920B905485DF007F903485C
:109BF00008BD04485DF002F9004808BD9C22002021
:109C000090CF0708B8CF070810B5044C04480A469F
:109C100021465DF0F3F8204610BD00BF9C220020D5
:109C2000E0CF070810B5044C04480A4621465DF011
:109C3000E5F8204610BD00BF9C220020F4CF0708A5
:109C400010B5044C04480A4621465DF0D7F820467A
:109C500010BD00BF9C22002000D00708F8B5A0F678
:109C600068042379DB0725D5657994F84C3805F02D
:109C700001073D46FBB1D4F848341A68D36A5B0843
:109C8000536294F8503823B1B4F85A380133A4F829
:109C90005A38606C85F0010160F0C4FC012384F83F
:109CA0004F38002384F84D3884F84E38A4F85638DD
:109CB00084F84C38F8BD94F84F68012E04BF94F82E
:109CC0004D3884F84E382046FEF780FE4EB9012309
:109CD00084F84F3887EA0301606CBDE8F84060F013
:109CE000A1BC002384F84F383946F5E738B5A0F613
:109CF00068040022606C344D03685A62A1F12903A4
:109D0000302B31D895F85B3895F85C180133DBB20D
:109D1000012B85F85B3809D9B4F8563885F85B28EB
:109D20005B08A4F856384B1C85F85C3895F85C281D
:109D30000023082AA4F8583815D185F85C38B5F8FE
:109D40005E3801339BB2032BA5F85E3808D923791E
:109D5000DB0705D5E36A94F8560843B3216B9847AF
:109D60000023A4F8563838BD5B396C290CD8B4F8F8
:109D7000563885F85B285B0843F08003A4F8563812
:109D800095F85C380133CFE794F85138002BCDD1EA
:109D9000012185F85B38A5F85E38802384F85118D6
:109DA000A4F8563885F85C1860F03CFCBEE7E3691F
:109DB0006269D054E369E2680133B3FBF2F102FB5C
:109DC0001133E361CCE700BF401B0020C0690028CD
:109DD00036D003681A6A127B2ABBD3E904125B6887
:109DE000496872B110B4546800220A6022609A88EF
:109DF0005DF8044B22F003021204120C9A8058F012
:109E0000F5BD1A891206FCD41A89D20709D400229A
:109E10000A609A8822F002021204120C9A8058F00A
:109E2000E5BD9A89F0E78268002AD6D01168928849
:109E30000A83D3E904125B684968002AD2D1E0E7BB
:109E4000704700BFC06900B97047016830B4D1E9FC
:109E500004424B6864687AB15568002222602A6027
:109E60009A8822F003021204120C9A800B6A1B7B60
:109E7000A3B930BC58F0BABD1A891506FCD41A89AA
:109E8000D20714D4002222609A8822F0020212041F
:109E9000120C9A800B6A1B7B002BEAD08368002B84
:109EA000E7D01A689B88138330BC58F09FBD9A890D
:109EB000E5E700BF38B590F82830012B044606D0FE
:109EC000407F08B9012038BD0023637738BD406A60
:109ED00003681A7B92B9637F002BF3D00A4D0B49BC
:109EE000022305F5066258F075F995F86138D843F4
:109EF00003F0010300F001006377E7E71B6A002B22
:109F0000E9D0002038BD00BF401B002050020020D7
:109F100038B5044694F82830012B07D0637F0BB185
:109F200000236377012038BD1B6A23B1606A036890
:109F30001A7B002AF8D1637F002BF3D0074D084924
:109F4000022305F5066258F045F995F8613803F0EB
:109F50000102DB076277E5D5DCE700BF401B00208C
:109F6000500200202DE9F843DDF820800F46154609
:109F70000021202204461E4668F00EFCB8F1000FB6
:109F80000CD0D8F80030E3811B0C2382D8F80430C1
:109F9000B8F80A20E3821B0C62822383384665F0FE
:109FA0003FFAEB0619D4431EB8B107EB000C01E0F1
:109FB000013B12D31CF801EDBEF12E0FF8D1C01AEF
:109FC000421E032AA8BF0322082B03F10109A8BFE0
:109FD00008239046B9441A4606E008280246B946C6
:109FE000A8BF08224FF000084FF020333946236005
:109FF0006360204668F078FB04F10800154B23816C
:10A0000042464946837068F06FFB611EE21D11F8FD
:10A0100001CFACF16103192B9CBFACF1200C81F88E
:10A0200000C09142F3D104F10A0011F8013FA3F1FD
:10A030006102192A9CBF203B0B708142F5D1182385
:10A040002373330CA382E572099B6683E361BDE849
:10A05000F88300BF202020002DE9F04FDFF84CB43A
:10A06000DBF8000085B0CBF8C006002B60D01344AD
:10A070000C46174601F5FE7A99461FE0002F64D082
:10A08000DBF8EC36BB4200F0C680DBF8E836BB42BA
:10A0900000F0F880DBF8F036DBF8F416BB424BD862
:10A0A000B94200F27081791A20465FF08BFC0137CB
:10A0B0004F4504F500740AF5007A39D0DBF8F8361C
:10A0C000BB42DBD8DBF80857FB1A296BDA080232EF
:10A0D0008A4203F0070602D3AB6B9A420BD929469A
:10A0E000104602925FF03EFC029A0546002800F0FE
:10A0F0006A81CBF808072B79002B40F01E81D5F838
:10A100002880B8F1000F00F057812B6BD21AEB6852
:10A1100006EBC20203EB422220462B464FF40071AD
:10A120000137C0474F4504F500740AF5007AC5D1E0
:10A13000002005B0BDE8F08FB942B4D94FF40072E9
:10A140000021204668F028FBB1E74FF40072394641
:10A15000204668F021FB802384F8BE310C2384F86C
:10A16000C231DBF8E816C54ADBF8E036C4F8C611A0
:10A170009142C4F8CA3100F30B81C14AC14D82FB40
:10A18000010285FB01050A44C817C0EB6212C0EB4F
:10A190002530BD4D84F8C10185FB0265C2EB8216F6
:10A1A0008010891B013120F03F0015440843D1176E
:10A1B000C1EBE5110A4484F8BF21B04A84F8C0011C
:10A1C000013B934200F3F080AD4AAE4882FB03129C
:10A1D00080FB03101A44D917C1EB6212C1EB203186
:10A1E000A94884F8C51180FB0250C2EB8215891082
:10A1F0005B1B013321F03F0110441943D317C3EB1C
:10A20000E0131A4484F8C41184F8C3214AF6552394
:10A21000A4F8FE314BE74FF0FF3384F8EC3184F8BB
:10A22000ED3184F8EE3184F8EF31522323706370FE
:10A230006123A37084F8E7314123E37084F8E631A9
:10A240007223002584F8E43184F8E531DBF8003727
:10A25000C4F8E8314FF4F0722946201D68F09CFAEA
:10A26000552384F8FE316FF05503C4F8F051C4F85B
:10A27000F451C4F8F85184F8FC5184F8FD5184F885
:10A28000FF3114E74FF400720021204668F084FA91
:10A290007E4B03CB45F6EB0323809023C4F80710D5
:10A2A000A37002220821F823C4F80300617322740A
:10A2B0006375DBF8E0362273A27384F82C20DBF898
:10A2C000E8269B1A2362DBF8F026DBF8F4369B1AAB
:10A2D00063620023E372E3736377A377E37784F821
:10A2E0002D3084F82E3084F82F3084F83130684BCC
:10A2F000A361684BC4F842303E232377012384F8DE
:10A300003030654A802384F8403084F846104AF69D
:10A310005521A4F8FE1103CA604BC4F84700C4F8E5
:10A320004B1003CB1388A4F84F309378C4F8520035
:10A33000C4F8561084F85130B9E64FF40072002189
:10A34000204668F029FA002E44D12B6C04F1200835
:10A35000002B7BD02B6B52491122CDE900662046A1
:10A36000FFF700FE2B6C1A6C002A7ED01B6B4D4948
:10A37000CDE9006640461122FFF7F4FD04F14008E4
:10A380004FF4E0736DE0F91A20465FF01BFB8EE698
:10A39000FF2284F8C1214FF6FF72A4F8BF21374A8B
:10A3A000013B93427FF710AFFF2384F8C5314FF68E
:10A3B000FF73A4F8C33129E741464FF400722046E9
:10A3C00068F0EAF973E6384A231F43F8042F9A45E8
:10A3D000FBD16CE6D5E910253301002A43D0023BBE
:10A3E000002D3FF464AE013BAD6CF9D1A0464FF4B3
:10A3F0000073002D3FF45BAECDE9027A08EB030653
:10A40000A24608E00024CDE900C4FFF7ABFDAD6C27
:10A41000BDB1B04515D02C7929682B6B404605F1AC
:10A420001C0C112208F12008002CEBD16A792C6950
:10A4300042F02102CDE900C4FFF794FDAD6C002D80
:10A44000E7D15446029FDDF80CA030E6CDE9006666
:10A450003346DBF8E41608222046FFF783FD4FF46D
:10A46000F0736D6CC5E7013BBAE7CDE900660D49B5
:10A47000334640461122FFF775FD7FE7FF03FB00DF
:10A4800083200882975545418180808018D0070835
:10A490003F00FF0029940E0D24D0070830D0070894
:10A4A00010D0070814D00708DEADBEEF401B002017
:10A4B00010B4EFF31182102383F31288084B19684C
:10A4C0004FF0E02001311960816959600024C3F820
:10A4D00010470369D3B283F311885DF8044B7047CA
:10A4E000401B002010B4EFF31181102383F3128876
:10A4F0004FF0E022C9B29469136913F4803F0C4B0A
:10A500001EBF0120C3F8100794691868D3F81027FC
:10A5100081F31188996802444FF47A7000FB01F3CB
:10A520001B1B5DF8044BB3FBF1F300FB02307047DB
:10A53000401B0020234B5B68C3F3080310B4DBB956
:10A54000EFF31183C3B9204B4FF0E02C1A68DCF80D
:10A55000180019688A42F9D159688842F6D89C686F
:10A560004FF47A7101FB04F3181AB0FBF4F05DF8B4
:10A57000044B01FB02007047EFF31181102383F3BA
:10A5800012884FF0E022C9B29469136913F4803F36
:10A590000D4B1EBF0120C3F8100794691868D3F84B
:10A5A000102781F3118899684FF47A73024403FBF2
:10A5B00001F0001B5DF8044BB0FBF1F003FB02005F
:10A5C000704700BF00ED00E0401B00202DE9F04F78
:10A5D000037D02681F2B83B0044609D95068A3F19C
:10A5E00020052021A940014207D103B0BDE8F08F2A
:10A5F0001068202199400142F7D04749474D4968EA
:10A60000E769C5F8FC1A8C2101FB075195F834CA9B
:10A61000D1F8D8050668BCF1000F18D1D1F8500662
:10A62000B1F8DCC5016821F001010160B18989B28E
:10A6300021EA0C01B1812978B9B91F2B60D9A3F1A6
:10A64000200120238B40D36003B0BDE8F08F006968
:10A65000016821F001010160B18921F480710904D0
:10A66000090CB18129780029E7D04FF08C0808FB4C
:10A6700007F805EB08030193D3F850A6DFF8A0B064
:10A6800050465CF07DF9019B012283F82426D5F821
:10A69000043B08F11809D944002B38D033889BB209
:10A6A00043F08003338008F174084FF0FF330BEB65
:10A6B0000801F36230465CF0F3FA8C2303FB075782
:10A6C000494600235046C7F8F4355CF0EFF9D7F857
:10A6D000503616225A601A6842F001021A60D7F802
:10A6E000D825B7F8DC35126891890B439BB293816A
:10A6F0000949237D49682268C5F8001B1F2B9ED895
:10A70000202101FA03F3936003B0BDE8F08FFFF757
:10A7100011FFC5F8040BC1E7001000E004000010B1
:10A72000D40500102DE9F843FFF704FF204F214E18
:10A730007C6805464FF00008002C2DDD00231A46EA
:10A7400007EB0321013391F8F9109C4242EA010220
:10A75000F6D142EA08095FFA89F990467368C3F3B3
:10A760000803B3B9EFF311839BB9FDF749FC401B14
:10A77000B0F5FA6F02DCB8F1000FDDD1B9F1000FCE
:10A7800004D00D4B93F86228542A09D04846BDE8FE
:10A79000F883FFF7A7FEEAE7C1464FF00008DDE7C0
:10A7A000B3F868280132A3F868284846BDE8F88362
:10A7B0000400001000ED00E0401B0020AD4B1B78B2
:10A7C0000BB9012070472DE9F04FDFF8BCB2AA4960
:10A7D000DBF80020A94BA1FB02125209A3FB0213D4
:10A7E000DB08A44987B003EB8303A2EB430391F892
:10A7F000C825049201F60834DAB2059204EB830707
:10A80000002201F6E853019301F5816A9046049B0A
:10A81000984500F00D81DAF81820DAF80490D2F8A3
:10A82000E830D2F8EC600293FFF784FE029B0390BD
:10A830004FEA890C9BF862989BF874080CF1085C4D
:10A8400006F180610CEB431C3939B9F1540F0CEB64
:10A8500081110CEB801301D1ABF86A08994240F2E8
:10A860007D811A68002A00F071811A6C002A00F0BC
:10A870008381D3F88020002A00F08081D3F8C020A3
:10A8800003F58073002AE9D1A3EB0C0C99424FEA3F
:10A89000AC1240F26381B11A45294FF0000628BF7F
:10A8A00045213046B64603EB81111D4616460DE0A4
:10A8B0001A6C002A40F0EA80D3F88020002A40F089
:10A8C0001581D3F8C02003F580732AB9994206D9BF
:10A8D0001A68002AECD04033994200F2DB803246FD
:10A8E0007646112E40F23E81DEF1150100F13A81EB
:10A8F000634B1D46D3F8CC309A4238BF2B46039D9C
:10A9000038BFC3F8CC20DBF87838EA1A002A18DB05
:10A9100003F5F42303F590739D4284BF2B46053362
:10A92000CBF87838564B564AD3F8CC30052B86BF37
:10A93000053BDBB200238BF874384FF0FF33C2F8CD
:10A94000CC3031B100FA01F1C6F114060120B0405B
:10A9500008434C4EC0F3C43306EB8303D3F8BC1D4D
:10A9600000F01F0306EB8303D3F8BC2D42EA01324B
:10A97000C0F3441106EB8101C0F3842306EB83038B
:10A98000D1F8BC1DD3F8BC3D42EA011141EA0321D4
:10A9900081EA112383EA131303F00F02354BD3F836
:10A9A000F03D0F2A03F1010340F0BD80B1F5803F77
:10A9B00080F0B980B9F1540F4FEA111140D02D4AFF
:10A9C000B1F5606FC2F8F03D45D0019B998194F8D4
:10A9D0005830059883420CD0BA6823689B1A2360CC
:10A9E0003A6B63689B1A63600023BB603B6384F827
:10A9F0005800236801332360BB680133BB604FF606
:10AA0000FF73994205D16368013363603B6B013387
:10AA10003B63019B08F101081433B8F1080F04F1FE
:10AA20005C0407F15C0701930AF1200A7FF4EFAEA2
:10AA3000104A0123012082F8EC3E07B0BDE8F08FF8
:10AA4000BBF864280132ABF864280A4AB1F5606F9C
:10AA5000C2F8F03DB9D19BF89A3003EB43030BEBFE
:10AA6000C303434493F8A9300D2BAED1019A802340
:10AA70009377ACE7040000101F85EB51CDCCCCCC14
:10AA800088010020102C0708401B002080339942C9
:10AA90007FF625AFA3EB050C3C4A4FEAAC1C0CF14A
:10AAA000010C82FB0C52A2EBEC72012AB8BF01220E
:10AAB00090404FF0010C9644013A0CFA02F2104318
:10AAC0009C46DCF800209AB1DCF84020002A57D0E0
:10AAD000DCF88020002A56D0DCF8C0200CF5807C01
:10AAE00042B16145EDD81D466346EFE6C033F3E65B
:10AAF0000CF1400C6145F6D9ACEB03029211234BEB
:10AB0000013283FB0253A3EBE273012BB8BF012395
:10AB100098409E440122013B02FA03F31843634626
:10AB20001D466346D2E6B9F1540F04D1BBF8642840
:10AB30000132ABF86428164AC2F8F03DD2F8EC3D79
:10AB40000133C2F8EC3D4FF6FF7140E74033A3EB11
:10AB50000C0C99424FEAAC123FF69DAE10B1013891
:10AB60008BF87408B9F1540F7FF453AFBBF8663813
:10AB70000133ABF866384CE7803385E6C03383E6B3
:10AB80000CF1800CB6E70CF1C00CB3E756555555E7
:10AB900004000010F8B51D4B93F8992093F89A30F3
:10ABA0009A422ED11A4F7D68002D11DD38460024BF
:10ABB00010F8086B16B1037E012B1CD002691368D4
:10ABC000013443F00103A54200F580701360F1D118
:10ABD000FFF7B0FCD7F8F04E002C0BDD0D4A02EB6E
:10ABE000C404116893888889083203439BB2944255
:10ABF0008B81F6D1F8BD002380F8F030FDF7E2FD3F
:10AC0000DCE764F02DF80028CCD1F8BD401B002013
:10AC100004000010F80E0010454B5B68C3F30803F6
:10AC20002DE9F0430546002B5ED1EFF31183002B95
:10AC30005AD1404B4FF0E0241A68A06919688A4243
:10AC4000FAD159688842F7D89E684FF47A7101FBAF
:10AC500006F4241AB4FBF6F401FB0244344E102728
:10AC60004FF0E02C4FF47A7E4FF001087268C2F387
:10AC70000802CAB9EFF31182B2B91A68DCF81800F9
:10AC800019688A42F9D159688842F6D8D3F80890F1
:10AC90000EFB09F1091AB1FBF9F10EFB0212121BAE
:10ACA000AA42E3D3BDE8F083EFF3118287F3128861
:10ACB000DCF81800DCF81010C90344BFC3F8108793
:10ACC000DCF81800D3F80090D3F81017D2B282F352
:10ACD00011884944D3F808900EFB09F2121AB2FB0E
:10ACE000F9F20EFB0122DAE7EFF31181102383F36F
:10ACF00012884FF0E022C9B29669136913F4803FBD
:10AD00000C4B1EBF0120C3F8100796691868D3F8D2
:10AD1000102781F31188024498684FF47A7101FB7F
:10AD200000F4A41BB4FBF0F401FB024496E700BF5F
:10AD300000ED00E0401B00202DE9F0473A4B3B4D71
:10AD4000471E10264FF0E0204FF47A7C4FF00108A8
:10AD50006A68C2F30802002A52D1EFF31182002A76
:10AD60004ED11A68846919688A42FAD159688C42AE
:10AD7000F7D899680CFB01FEAEEB040EBEFBF1FEAA
:10AD80000CFB02EE6A68C2F30802E2B9EFF311822B
:10AD9000CAB91A68846919688A42FAD159688C421A
:10ADA000F7D8D3F808900CFB09F1091BB1FBF9F1B6
:10ADB0000CFB0212A2EB0E02B2F57A7FE2D3013F46
:10ADC000C6D2BDE8F087EFF3118286F3128884695A
:10ADD0000169C90344BFC3F810878469D3F800A090
:10ADE000D3F81017D2B282F31188D3F808905144E7
:10ADF0000CFB09F2121BB2FBF9F20CFB0122D9E7A2
:10AE0000EFF3118186F3128884690269D20344BF8B
:10AE1000C3F810878469D3F800E0D3F81027C9B2CB
:10AE200081F311887244A4E7401B002000ED00E08C
:10AE300030B50C4683B00546D8B1036803F13F43F3
:10AE400003F57E039B0A0C4A134493F8A4045FF0B5
:10AE500011FFC4F34112C4F30013CDE90032C4F36F
:10AE60008103A988286804F0030262F091FD03B011
:10AE700030BD4FF0FF33E6E7102C070800B1D7E7ED
:10AE8000704700BF70B50E4C94F8C865B6B104F5B4
:10AE90008164002504E00135B54204F120040DD0A1
:10AEA000237F002BF7D0E0680028F4D0217D013506
:10AEB000FFF7BEFFB54204F12004F1D1012070BDBF
:10AEC00004000010F0B5002487B0CDE90144CDE9BD
:10AED00003440DF1040CC0E93F44C0E94144C0F80B
:10AEE0000C41054600F5887EBCE80F00AEE80F0077
:10AEF000CEF8004095F82931234E0594C5F85461E9
:10AF00000BB907B0F0BD1E09013E052E03F00F037B
:10AF10002DD81E4F07EB4602B2F8F40340FA03F2B5
:10AF2000D20724D5012202FA03F3013B184037442B
:10AF300067F024FE97F83C3E154A2946154D034418
:10AF400005EBC3052620E880234641F80C2F284650
:10AF5000224662F08FFC1049AA880868B2FA82F291
:10AF60004FF00043D34003430B6007B0F0BD2946C8
:10AF7000074B41F80C3F00231A46184607B0BDE8BE
:10AF8000F04062F077BC00BF3B43413B102C070808
:10AF90007DB30008441C0020003C014038B5040982
:10AFA000013C052C1AD80F4D05EB440200F00F03AD
:10AFB000B2F8F40340FA03F212F0010210D00122B9
:10AFC00002FA03F3013B1840254467F0D7FD95F8DA
:10AFD0003C3E054A034402EBC30038BD002038BDA7
:10AFE000104638BD102C0708441C002008B515F089
:10AFF0006DFC052807D8054BD3F87C380344187B33
:10B00000BDE80840CAE7002008BD00BF401B002083
:10B0100008B51D20FFF7C2FF10B190F9063053B1FB
:10B020001E20FFF7BBFF10B190F9063003B108BD39
:10B030005523C38008BD5523C380F1E770B5037D58
:10B04000C56902681F2B04464FD95068203B202158
:10B05000994008423BD0D16010219940D16051689D
:10B06000D940CE0700F18780EFF31183502282F39D
:10B0700012882A6C1168C9075AD4516889B2A9B9D3
:10B080006E6AA86A864250D0AE6AA8693044D06021
:10B090006E6AA86A864273D9696AA86A091A686AD8
:10B0A000A86289B2002085F864005160116841F0FF
:10B0B0000101DBB2116083F3118895F86430002B35
:10B0C0003DD1237D22681F2B194614D9203B50689F
:10B0D00008219940084200D0D1605068042101FA4B
:10B0E00003F3184200D0D36070BD1668202098404A
:10B0F00006420DD11946106808238B40184200D033
:10B100009360106804238B401842EDD0936070BDAB
:10B1100010219940906091601168D940C807A3D56B
:10B12000012101FA03F393609EE7012285F8642070
:10B13000DBB283F3118895F86430002BC1D095F809
:10B140007230022BBDD095F87230002BB9D195F832
:10B150007100FFF723FF2A6E938923F008031B0475
:10B1600001211B0C938185F872100028A9D02021A1
:10B17000FFF75EFEA5E7012101FA03F3D36073E751
:10B18000A86AA9622969091A8BE700BF08B55BF0B4
:10B19000B3FE1B20FFF702FF08B12923C3801C2048
:10B1A000FFF7FCFE08B12923C3800A4B93F88528DA
:10B1B000012A01D0012008BD0748C3F8880800F122
:10B1C00020014C305EF04CFC044B002083F823003F
:10B1D00008BD00BF401B00205802002000ED00E029
:10B1E00043680B4A23F0407323F4807343F4807365
:10B1F000436083681A4042F002028260C36A0139E8
:10B20000C9B223F4700343EA0153C362704700BF1D
:10B21000FDF7FFC0704700BF0020FCF71FBF00BF55
:10B220000120FCF71BBF00BF0220FCF717BF00BFC7
:10B2300010B1036882881A83704700BF30B1036879
:10B2400082881B691A4214BF01200020704700BF8A
:10B2500010B1036882885A83704700BFF0B5056853
:10B2600090F888606B688488012285F824201A8809
:10B2700022F040021204120C1A802A89A24255D1EF
:10B28000017BAA7A8A420BD01A8822F003021204A8
:10B29000120C1A801A8892B2002944D01A80A9721E
:10B2A0001A882F7B92B242F040021A802B6A9A6869
:10B2B00092B34FF0000C2F4C1433E64653F8101C99
:10B2C000964401EA040221B1B2F1805F27D06A6995
:10B2D0002AB353F8142C143302EA040112B1B1F169
:10B2E000805F1CD053F80C2C0CF1010C002AE5D126
:10B2F000AFB1A6B1BCF1010F0AD8BEF1070F07D854
:10B300000CEB8C0C4FEA8C022B6A13441B7B33B979
:10B31000BDE8F04057F044BA0FB1002EF4D1BDE8BB
:10B32000F04057F0BBBC42F00302B7E71A8812495D
:10B3300022F0380212048B424FEA124217D001F574
:10B3400080618B4213D02146B1F5807FA8BF4FF4B6
:10B3500080710229B8BF022191FAA1F1B1FA81F1FD
:10B36000013942EAC10292B21A802C8188E7610851
:10B37000EAE700BF0000FFFF0038004038B52C4A64
:10B38000D0F8E8305268D0F8E010044673B1501A93
:10B3900083420BDC94F8D830C4F8E020012B10D0A5
:10B3A000D4F8DC300133C4F8DC3038BDD4F8EC30EC
:10B3B000C4F8E0200B44C4F8E43094F8D830012BF2
:10B3C000EED16168201D04F1F005EFF3118C10231C
:10B3D00083F3128863681B6A0BB3D4F8F8302A46EB
:10B3E0001BB1D3691432002BFBD10B6A6BB1996886
:10B3F00039B9934209D0196829B15B689968002965
:10B40000F7D01433F3E7C3E900055FFA8CFC8CF343
:10B410001188D4F8DC300133C4F8DC3038BD0D625B
:10B420005FFA8CFC8CF31188FFF718FFB8E700BFB8
:10B43000001000E02DE9F041826992F8E430012B20
:10B440008AB005465BD0023B012B54D892F85431A8
:10B45000D2F89C203B4C63F07F0313708769D7F8C8
:10B46000A030D7F8108003F1010E0FCCEC46ACE809
:10B470000F00D7F89C30CDE9003E0FCCACE80F00B0
:10B4800094E8030007F110068CE80300EFF3118045
:10B49000102383F312883B691B6A002B49D0029B5F
:10B4A0006A461BB1D3691432002BFBD1D8F8203087
:10B4B00073B1996839B993420AD0196829B15B68A8
:10B4C00099680029F7D01433F3E71E60C3F804D05D
:10B4D000C0B280F31188A9690A69136A002BFCD1F4
:10B4E000D1F8A0305A8852BAEA819A8852BA2A8290
:10B4F000DB885BBA6B8201200AB0BDE8F08192F86C
:10B50000570192F85431D2F8A0101B1A5B10013386
:10B51000DBB201EB430231F813305BBAEB815388A5
:10B520005BBA2B82938801205BBA6B820AB0BDE8BC
:10B53000F081C8F820D0C0B280F311883046FFF700
:10B540008DFEC8E7543A07082DE9F04190F8E43041
:10B55000D0F8A050012B8AB0044673D041D9023BE9
:10B56000012B6BD890F85531D0F89C206A4E63F0CF
:10B570007F031370D0F8A030D0F8108003F1010ED3
:10B5800000F110070FCEEC46ACE80F00D4F89C3069
:10B59000CDE9003E0FCEACE80F0096E803008CE842
:10B5A0000300EFF31180102383F3128823691B6AD1
:10B5B000002B00F0A880029B6A461BB1D3691432AD
:10B5C000002BFBD1D8F820302BB3996839B99342BE
:10B5D00021D01968E1B15B6899680029F7D014336C
:10B5E000F3E7D0F89C304FF0FF321A605A609A604F
:10B5F000DA60D0F8E8300522B3F57A7FC0F8F82099
:10B6000054D8032380F8E43001200AB0BDE8F0816B
:10B610001F60C3F804D0C0B280F311882269136A96
:10B62000002BFCD16B885BBAA4F8D030AB885BBA36
:10B63000A4F8D230EB885BBAA4F8D43001200AB069
:10B64000BDE8F08190F8571190F8553190F85621E7
:10B65000D0ED366AD0ED377A5B1A5B100133DBB27E
:10B66000521A35F8131005EB430349BAA0F8D0106D
:10B67000598849BAA0F8D2109B8852100132D2B230
:10B680005BBAA0F8D43035F81230DBBA07EE103AC6
:10B69000B8EEC77AE7EE267AFDEEE77A17EE903A33
:10B6A000A0F8D63001200AB0BDE8F08103691A7B0A
:10B6B0002AB35B691BB390F8983003B390F8573105
:10B6C000D0F89C20C4F8A40063F07F03137090F8B6
:10B6D000571190F85531D0F8A0201048C4F80C014B
:10B6E0005B1A07330121C4F80431D4F89C3084F884
:10B6F00008110A44C4E93F3284F8E4109EE70223AB
:10B7000084F8E4309AE7C8F820D0C0B280F31188FA
:10B710003846FFF7A3FD81E7543A0708398000084F
:10B72000D3B2012B1DD8104B02EB420210B54FEAE9
:10B73000820E0EF1080403F5137C02E01C3363450E
:10B740000DD01A788242F9D15A788A42F6D11A5924
:10B75000002AF3D00EF1040E03EB0E0010BD002002
:10B7600010BD0020704700BF7C3A070810B40C4C95
:10B77000002304F68C0C01E0152B0CD003EB4302E4
:10B7800001331CF802108142F6D1144494F98E085A
:10B790005DF8044B70474FF0FF305DF8044B704785
:10B7A000401B0020D3B2022B22D870B502EB42021C
:10B7B000104C4FEA820E23460EF10C05002204E0E5
:10B7C0000132172A03F12C0310D01E68B042F7D1C2
:10B7D00093F804C08C45F3D15E59002EF0D02C2193
:10B7E0000EF1080301FB0233E01870BD002070BDAC
:10B7F00000207047102C0708002839D030B51D4DA7
:10B8000090F804C0002305F68C0401E0152B2DD020
:10B8100003EB43020133A15C6145F7D11544046891
:10B8200095F98E3890F805E0DAB2022A1ED803EBBB
:10B83000430311484FEA830C0CF10C050346002228
:10B8400004E00132172A03F12C030FD019688C424F
:10B85000F7D119797145F4D159590029F1D02C212A
:10B860000CF1080301FB0233184430BD002030BD49
:10B87000704700BF401B0020102C07080348D0F879
:10B88000483113B100F59C701847704788010020BB
:10B890000348D0F8743113B100F5B27018477047FF
:10B8A000880100200348D0F8A03113B100F5C8701A
:10B8B00018477047880100200348D0F8CC3113B1F5
:10B8C00000F5DE7018477047880100200348D0F863
:10B8D000F83113B100F5F470184770478801002063
:10B8E0000348D0F8243213B100F5057018477047AB
:10B8F000880100200348D0F8503213B100F51070D1
:10B9000018477047880100200348D0F87C3213B1F3
:10B9100000F51B7018477047880100200348D0F8D5
:10B92000A83213B100F5267018477047880100202F
:10B930000348D0F8D43213B100F53170184770477E
:10B94000880100200348D0F8003313B100F53C70A3
:10B9500018477047880100200348D0F82C3313B1F2
:10B9600000F5477018477047880100200348D0F859
:10B97000583313B100F55270184770478801002002
:10B980000348D0F8843313B100F55D701847704751
:10B99000880100200348D0F8B03313B100F5687077
:10B9A00018477047880100200348D0F8DC3313B1F2
:10B9B00000F573701847704788010020094B013863
:10B9C0002C2202FB0033084AD3F838310748116BA8
:10B9D000834214BF4FF480034FF400130B431363EF
:10B9E000704700BF8801002000380240006002401C
:10B9F00070B53E4C3E4D01384FF02C0C0CFB004C0A
:10BA00009646DCF838613B4AAE4214BF4FF48005DD
:10BA10004FF40015166B35431563CCF8543102F51D
:10BA20002052DCF83C31CCF84811103293423ED021
:10BA300002F5806293423AD0A2F57A72934248D0DE
:10BA400002F58062934244D0A2F57A72934242D0CA
:10BA500002F5806293423ED0A2F57A72934236D0CC
:10BA600002F58062934232D0A2F57A72934234D0CA
:10BA700002F58062934230D0A2F57A7293422ED0C2
:10BA800002F5806293422AD0A2F57A72934228D0BE
:10BA900002F58062934224D0A2F57A72934222D0BA
:10BAA000154D02F58062934218BF002500E0134D4A
:10BAB0002C2303FB0044CEF3011294F85001C4F888
:10BAC0005C51CEF38711BDE8704061F0AFBE0C4D04
:10BAD000EEE70C4DECE70C4DEAE70C4DE8E70C4DBA
:10BAE000E6E70C4DE4E7044DE2E700BF88010020E3
:10BAF00000600240003802400080002820800010D2
:10BB00000080001800880010008020102080002095
:10BB100000880020008020202DE9F04F934A92F801
:10BB2000DD38012B85B021D0022B15D000230093E6
:10BB30008F4F4FF0000807F1780A3B78022B17D09F
:10BB400008F10108B8F1030F07F128070AF1050A07
:10BB5000F3D105B0BDE8F08F92F8D23833B192F846
:10BB6000CE38083B18BF01230093E1E70093DFE7DD
:10BB70009AF903307F4D0297591C15BFDBB20023A1
:10BB80009B464FF0010B1E46DAB2012A00F2DB8021
:10BB900006EB460189007300774C019308315FFA88
:10BBA00088F703E01C34AC4200F0CD802378002BF2
:10BBB000F8D16378BB42F5D160580028F2D011F07B
:10BBC00035FE009B814623B1A0F10901072940F20F
:10BBD000BF807A1CD2B21421484611F011FE002811
:10BBE00000F0B180DDE90137334404EB830409F14F
:10BBF000FF33E068614C59424FF02C0203FB02F224
:10BC000001F0070103F0070358BF4B42A11804F5E8
:10BC10009C742244C1F844013A61484681F840319D
:10BC2000FFF7CCFE9AF904305A1C00F09A80DEB27D
:10BC30003246CDE902794F4DF3B29346012B62D8DB
:10BC400006EB4601890073004B4C019308315FFA03
:10BC500088F902E01C34AC4255D02378012BF9D18D
:10BC600063784B45F6D160580028F3D011F0DEFD23
:10BC7000009B07461BB1A0F10901072947D909F12B
:10BC80000102D2B21321384611F0BAFD00283AD091
:10BC9000BB46DDE90127324404EB82040BF1FF329D
:10BCA0005142E068354CDDF80C904FF02C0502FB5A
:10BCB00005F501F0070102F0070258BF4A42611979
:10BCC00004F59C742544C1F844017D61584681F80F
:10BCD0004021FFF773FEB9F1000F3DD0BBF1000F1B
:10BCE0001BD02846FCF7D8FB3869FCF7D5FB384653
:10BCF000FCF7A2FB00231A4621495846FFF778FEBD
:10BD000001233B731CE70136F3B29B4596D2DDE974
:10BD10000279B9F1000F1FD01A4C09F1FF332C2220
:10BD200002FB0340002438617C61FCF7B5FB384618
:10BD3000FCF782FB2346144922464846FFF758FE8B
:10BD400001233B73FCE60136F2B29345BFF41DAF0D
:10BD5000029F4FF0000965E700220023C7E9042392
:10BD6000EEE601231A46002663E700BF401B0020D1
:10BD700038240020C83C07087C3A070888010020C6
:10BD8000CD9D0008C0020020459E00080C4A0D49C8
:10BD900003469342D1F8000110D0A2F5806293428D
:10BDA0000CD002F58042934208D002F580629342A3
:10BDB00004D002F58062934218BF4008704700BF6C
:10BDC00000040140401B0020064A136851690B40E3
:10BDD00003F00103536123B1034BD3F81407036845
:10BDE00018477047003C0140401B0020064A13687A
:10BDF00051690B4003F00203536123B1034BD3F8A5
:10BE00001807036818477047003C0140401B00209A
:10BE1000064A136851690B4003F00403536123B1D0
:10BE2000034BD3F81C07036818477047003C0140D8
:10BE3000401B0020064A136851690B4003F00803B9
:10BE4000536123B1034BD3F82007036818477047A9
:10BE5000003C0140401B0020064A136851690B401A
:10BE600003F01003536123B1034BD3F82407036895
:10BE700018477047003C0140401B0020F8B50C4BB0
:10BE80001D685A69154005F478755D617DB1094FEB
:10BE90000126B5FA85F4C4F11F0407EB840306FA02
:10BEA00004F4D3F8140703689847A543F1D1F8BD0B
:10BEB000003C0140401B0020F8B50C4B1D685A693E
:10BEC000154005F47C455D617DB1094F0126B5FA49
:10BED00085F4C4F11F0407EB840306FA04F4D3F8D5
:10BEE000140703689847A543F1D1F8BD003C014011
:10BEF000401B0020F0B5054683B0A0B307681D4B7A
:10BF0000144607F13F4202F57E0203EB92230E46F0
:10BF100093F8A4045EF0AEFEA988B1FA81F3C3F1F0
:10BF20001F03C3F3CC0207EB820203F00703156A79
:10BF30004FF00F0C9B009C400CFA03F325EA03031F
:10BF40001362136A1C431462C6F30013C6F3411252
:10BF5000CDE900323846C6F3810306F0030261F0F2
:10BF600017FD03B0F0BD034B93F8A3045EF082FE0F
:10BF70002B68FFDE102C070800B1BBE7704700BF3D
:10BF80002DE9F047684E06EB0013D3F88049002CEA
:10BF900076D093F8887905464FEA001838465EF067
:10BFA00069FE07F01F027F090123032F03FA02F342
:10BFB00072D0042F6BD0022F64D006EB080301353A
:10BFC00093F88409FEF7EAFFEDB2824610B112231E
:10BFD000C571837106EB080393F88509FEF7DEFF50
:10BFE000814610B11323C571837106EB080393F8E2
:10BFF0008609FEF7D3FF074610B11423C57183717C
:10C0000006EB0803504693F887594A212A46FFF762
:10C01000B3FF2A4648462A21FFF7AEFF2A460A21E7
:10C020003846FFF7A9FF414B9C423AD0404B9C4217
:10C0300042D0404B9C424AD03F4B9C4252D03F4B57
:10C040009C425AD03E4B9C4262D0A38823F003030B
:10C050001B041B0CA380238803F4415343F4457352
:10C0600043F003032380A38B23F400631B041B0C06
:10C070000722A383228223889BB243F040032380BC
:10C08000BDE8F0872F4A516A0B43536295E72D4A6A
:10C0900011690B43136190E72A4A116A0B4313623B
:10C0A0008BE703F584335A6A42F480525A625A6A23
:10C0B00022F480525A62C8E703F500331A6A42F448
:10C0C00080421A621A6A22F480421A62BDE703F5BE
:10C0D000FE331A6A42F400421A621A6A22F40042DB
:10C0E0001A62B2E703F582335A6A42F400525A6286
:10C0F0005A6A22F400525A62A7E703F568435A6A63
:10C1000042F480125A625A6A22F480125A629CE700
:10C1100003F564435A6A42F400125A625A6A22F4DE
:10C1200000125A6291E700BF401B0020003001401E
:10C1300000380040003C0040003401400050014005
:10C140000054014000380240431C00F069812DE991
:10C15000F04F2C23DFF8C0B400FB03F30BEB03021A
:10C1600085B0D2F80CA00646BAF1000F07D0D2E98C
:10C170000549002C00F01E8194F9062012B105B08B
:10C18000BDE8F08FB9F1000F00F0748199F9062035
:10C19000002AF4D118330BF10C05E818DAF8048002
:10C1A000EA50711CC0E90122C0E903221523A371E2
:10C1B000C9B21623E17189F8071089F806309AF898
:10C1C00028005EF057FDB8F804302268A08823F4F8
:10C1D00040731B041B0CA8F80430D9F800301083FE
:10C1E000B9F804201A8311212046FEF721FE1121FF
:10C1F0004846FEF71DFE0927332524B908E1013D15
:10C2000008D0FEF709FD2368A28819690A424FF099
:10C210000A00F4D05A830520FEF7FEFC2368A288AA
:10C220001A830520FEF7F8FC013FE5D1002C00F051
:10C230004581332503E0013D08D0FEF7EDFC23687E
:10C24000A28819690A424FF00A00F4D05A830520E7
:10C25000FEF7E2FCB9F1000F00F05C81D9F8003084
:10C26000B9F804205A830520FEF7D6FC2368A2887B
:10C270001A830520FEF7D0FCD9F80030B9F8042065
:10C280001A830520FEF7C8FC2368A2881B691A429E
:10C2900040F0C7802C2303FB06B3997F1A7F002947
:10C2A00040F0CA8020461221FFF724FE12212C23E1
:10C2B00003FB06B35A7F4846FFF71CFED04B984558
:10C2C00000F04581CF4B984500F04C81CE4B98450E
:10C2D00000F05981B8F8043023F440731B041B0CA0
:10C2E000A8F80430B8F800302C2202FB06B29BB24A
:10C2F00043F00103148CA8F80030B8F804504FF450
:10C300007A73684603FB04F425F03F055AF0F6FA09
:10C310000299BE4B2D04A3FB01232D0C45EA934546
:10C32000A8F80450B8F8002022F001021204120C00
:10C33000A8F80020B64A980C9442034600F3828085
:10C340006200B1FBF2F292B20133042A38BF042238
:10C35000A8F82030A8F81C20B8F800309BB243F0B1
:10C360000103A8F80030B8F8003023F4816323F00B
:10C3700002031B041B0C4FF4804143F48063A8F8B4
:10C380000030A8F80810B8F8003023F080031B0430
:10C390001B0C0022A8F800309AF82A00114661F020
:10C3A00045FA00229AF82900114605B0BDE8F04F81
:10C3B00061F03CBAB9F1000F00F0FA8099F906205B
:10C3C000002A7FF4DCAE18330BF10C01CA18DAF83E
:10C3D0000480CC50C2E90144C2E90344162389F821
:10C3E0000630731C89F807309AF828005EF042FC8A
:10C3F000B8F80430B9F8042023F440731B041B0C74
:10C40000A8F80430D9F800301A83F0E6FEF704FCEF
:10C41000013D4FF00A00F9D10520FEF7FDFB00E7D2
:10C4200070472C23D9F8002003FB06B312699A7FCA
:10C43000002A00F0A2801A7F32212046FFF75AFD21
:10C44000322134E704EB4404B1FBF4F18AB2C1F3C6
:10C450000B0109B942F001026E494FF4967300FBDB
:10C4600003F3A1FB03139B09013342F40042A8F834
:10C4700020306FE70BF10C011833CA18DAF804808A
:10C4800041F80390C2E90199C2E903991523A37108
:10C49000431CE3719AF828005EF0ECFBB8F8043016
:10C4A000A28823F440731B041B0CA8F804302368F3
:10C4B00011211A832046FEF7BBFC9CE6332401E0E1
:10C4C000FEF7AAFB013C4FF00A00F9D10520FEF768
:10C4D000A3FBB9F1000F61D0D9F80030B9F80420FE
:10C4E0005A830520FEF798FB0520FEF795FBD9F847
:10C4F0000030B9F804201A830520FEF78DFB2C23A9
:10C5000003FB06B39A7F002A18BF32215A7F08BF67
:10C510001221D0E60520FEF77FFB2368A2881A834C
:10C520000520FEF779FB0520FEF776FB2368A2883D
:10C530001B691A4255D12C2303FB06B3997F1A7F3E
:10C5400000296BD020463221FFF7D4FCB6E603F574
:10C55000F2331A6A42F400121A621A6A22F40012C2
:10C560001A62B7E603F5F0331A6A42F480021A62DF
:10C570001A6A22F480021A62ACE61A7F204612215F
:10C58000FFF7B8FC92E603F5EE331A6A42F40002B4
:10C590001A621A6A22F400021A629BE60520FEF76C
:10C5A0003BFB0520FEF738FB0520FEF735FB85E653
:10C5B00018330BF10C01CA18DAF8048041F8039023
:10C5C000C2E90199C2E903999AF828005EF052FB8A
:10C5D000B8F8043023F440731B041B0CA8F8043093
:10C5E00009E62C2303FB06B320469A7F002A18BFD6
:10C5F00032211A7F08BF1221FFF77CFC5EE600BFE4
:10C600000054004000580040005C004083DE1B43A3
:10C61000A0860100D34D6210401B0020204612214D
:10C62000FFF768FC4AE600BF2DE9F0410646FDF73A
:10C6300059FF114F2C24054604FB067442F20F7873
:10C6400004E0FDF74FFF401B404509DC94F825301E
:10C65000002BF6D194F8240080F00100BDE8F081B1
:10C66000B7F8B039013330469BB2A7F8B039FFF7BD
:10C670006BFD0020BDE8F081401B002010B582B0AA
:10C6800004468DF807300DF107035EF083FA08B910
:10C6900002B010BD2046FFF7C7FF02B010BD00BFBB
:10C6A000B0F1FF3F6AD02DE9F04F022883B0044675
:10C6B00013DC334F2C2600FB06F69946BB19D3F842
:10C6C00010B0BBF1000F08D00D4693F82510019370
:10C6D000924601F0FF02009219B1002003B0BDE8BC
:10C6E000F08FFDF7FFFE6D00019B0C99009A20363C
:10C6F000EDB2804607F10C0083F8265085194FF003
:10C70000010C83F827A083F8292083F82AC08151DF
:10C71000696083F8289083F825C083F82420BBF84B
:10C72000043099051ED4BBF80030DA0513D442F268
:10C730000F7505E0FDF7D6FEA0EB0803AB4213DC56
:10C74000BBF800309B05F5D4BBF800309BB243F436
:10C750008073ABF80030BBF804309BB243F44073F5
:10C76000ABF804300120B9E7B7F8B03901339BB218
:10C770002046A7F8B039FFF7E7FCAEE70020704786
:10C78000401B002050B5274E2C2303FB006385B0CF
:10C79000DA685468A28A92B20392039A12F4706F14
:10C7A0001CBF012283F82420039B13F4E06F0DD1FA
:10C7B000A38A2C2223F4706302FB00661B041B0C6B
:10C7C0000022A38286F8252005B050BD238BA388C4
:10C7D00023F480631B041B0CA380039B9A05E7D4FE
:10C7E00023889B05E4D42388D9050FD52388DA054F
:10C7F000FCD423889BB243F40073238023889B05D9
:10C80000FCD40190FFF7A0FC0198D1E723889BB2EC
:10C8100043F400732380A38823F440731B041B0C90
:10C82000A380C5E7401B00200020ABE70120A9E75B
:10C830000220A7E770B590F871301D09013D052D64
:10C84000044611D81C4E06EB450203F00F03B2F864
:10C85000F41341FA03F2D20706D590F87220012AA8
:10C86000D0B205D0012070BD94F872300120FAE7F3
:10C87000984001382E44084066F080F996F83C3E16
:10C880000E4A034402EBC30552F83320AB8810690B
:10C890001840E8D0E36E002284F8722093F821203B
:10C8A00002212846FFF726FB226E93899BB243F0B4
:10C8B00008039381D6E700BF102C0708441C002012
:10C8C000F8B50E4C94F8C8759FB104F5BA64C7F179
:10C8D00009070925013D0ED0A6683079FEF75EFBF9
:10C8E000217DF27908B1FFF705FBAF4204F18C041A
:10C8F000F0D10120F8BDAB68FFDE00BF04000010DE
:10C90000094BD3F8B429D3F8B81940F22A400023D0
:10C9100050604B620B889BB243F001030B8013689D
:10C9200043F0010313607047401B002010B41D4BFF
:10C930001D48196C1D4A41F08051012485B01964CD
:10C9400004625321FF24CA205462506251625B6F1B
:10C95000DB0017D416480423002102910290029AAA
:10C960001A440292029A04331C2B1160F5D10391F0
:10C970000390039B0393039B0E4A1A6005B05DF876
:10C98000044B70470A4B002201920193019B0193D3
:10C99000019A084B12689A42DCD105B05DF8044B4D
:10C9A000704700BF0038024000000E4200280040DF
:10C9B00050280040316665422DE9F043046ED0F8FE
:10C9C0000890A38923F400531B0407461B0C91B065
:10C9D000A38190F805803D79C8F3800005F0010639
:10C9E0004FEA0822B30015F002054FEA003002F4C6
:10C9F000806218BF43F0080302431A43238A4FEAB8
:10CA000008319BB223F4405301F4005119432182B1
:10CA1000A38923F4B05323F00C031B041B0C134312
:10CA2000A381A38A23F440731B041B0CA38201A8D7
:10CA300059F064FF684B9C4205D003F580639C422B
:10CA400001D0039B00E0049BA2896449A0891204E1
:10CA500003EB83034CBF4FEA49094FEA890903EB13
:10CA60008303B3FBF9F3A1FB03C252094FF0640C3B
:10CA700000040CFB12334FEA021200F193801B01F9
:10CA80003233A1FB0313C3F343131A4392B222813F
:10CA900097F93800FEF7AAFA30B10368828818F0D7
:10CAA000010F14BF1A835A8318F0080FA38A73D09A
:10CAB0009BB243F00803A382A3899BB243F40053C3
:10CAC000A381002E2FD0FE6B002E78D00023CDE95D
:10CAD0000833CDE90C33CDE90E33049306937B6C18
:10CAE0000193FB6D0293FB6805937B6903934FF4FD
:10CAF00080714FF48033CDE90A1330464FF48063E0
:10CB0000079359F03DFF01A9304659F0CFFF336834
:10CB100043F001033360A38A9BB243F04003A38236
:10CB200073689BB27B65002D33D03E6C002E41D0E4
:10CB3000BB6C0193BB6D02933B6905934023049347
:10CB40004FF48033002530460B934FF480630793F6
:10CB5000CDE90855CDE90C55CDE90E55039506955F
:10CB60000A9559F00DFF01A9304659F09FFF7369EE
:10CB700043F080037361336843F0160333607560DC
:10CB8000A38A9BB243F08003A382E36843F040038F
:10CB9000E36011B0BDE8F08323F008031B041B0C15
:10CBA000A38289E7DB003233A1FB0313C3F34213F3
:10CBB0001A436BE7E36843F08003E360E5E74FF671
:10CBC000DF732380E36843F02003E360E36843F00E
:10CBD0001003E360A7E700BF001001401F85EB5181
:10CBE000BFF34F8F0549064BCA6802F4E062134356
:10CBF000CB60BFF34F8F00BFFDE700BF00ED00E04B
:10CC00000400FA0508B50021032059F0D1FF72B6DF
:10CC1000FFF7E6FF154C08B5D4F8BC3994F8C20903
:10CC2000ABB91420FEF788F800BFD4F8BC395BB16B
:10CC30001A689B88116994F8C2290B4012B91BB17C
:10CC4000FFF7E0FF002BFBD0FCF798FCECE719683E
:10CC50009A880B69134020B1002BE2D10B69134075
:10CC6000FAE7002BDDD00B691340FAE7401B0020E8
:10CC700008B572B6FFF7B4FF00B583B00D490022C6
:10CC800000920091009B0C330093009B1B68012BCA
:10CC900002D003B05DF804FB01920191019B0649AB
:10CCA0000C330193019B1A600B6883F308884B686F
:10CCB0009847FEE7502800400000FF1F38B5FFF7F7
:10CCC00035FEFFF7D9FF012059F082FF6E4A9368C5
:10CCD00023F003039360936813F00C0FFBD11368E8
:10CCE0006949A0B943F00103136041F2883302E0BF
:10CCF000013B00F0C7800A689507F9D5634C002214
:10CD00000823C4F8C429C4F8C83902251EE043F436
:10CD10008033136041F2883302E0013B00F0B280BF
:10CD20000A689403F9D5594C594B5A4DB0FBF5F5A7
:10CD3000B0FBF3F0B5EB400F18BF28464FF480036B
:10CD4000C4F8C439C4F8C809B5FBF0F50220C4F82A
:10CD5000CC5959F03DFF03280DD84F4B03EBC003CE
:10CD60009988DA88C4F8D4195B88C4F8D829B3FB49
:10CD7000F5F3C4F8D039444B48491A6C42F080525C
:10CD80001A640A6842F440420A609A689A609A6893
:10CD900042F400429A609A6842F4A0529A60D4F831
:10CDA000C419D4F8C8290A43D4F8D01942EA811228
:10CDB000D4F8D81942EA0162D4F8D41949080139E3
:10CDC00042EA01425A601A6842F080721A601A6898
:10CDD0009201FCD5324A40F205711160996821F048
:10CDE00003019960996841F00201A2F5806299609F
:10CDF000936803F00C03082BFAD12A49D823B3FB1C
:10CE0000F5F39B0143F000530120C2F8843088669B
:10CE1000FBF736FE244D1C4B244AEA60596F244A26
:10CE2000C4F8DC19AA605A6B224922F080025A63C6
:10CE30005A6F42F080725A671A6B42F4CE021A633C
:10CE40005A6B5A639A6B9A631A6C0A431A64596C48
:10CE5000194A0A435A64FCF7FFFB184AD4F8003118
:10CE6000A2FB03239B09013BB3F1807F09D24FF062
:10CE7000E022F02053610021072385F8230091610F
:10CE8000136138BD014CC5E700380240401B00204B
:10CE900080841E0040420F00C83C0708007000401C
:10CEA000003C02400000474200ED00E00005FA05AA
:10CEB00000000020FFC9FE36335F0700D34D62102B
:10CEC00030B50068154C164D85B00139002389B284
:10CED000A042ADF80C30ADF806308DF80E3002915E
:10CEE000D5F800310FD00F4988420CD001F58041B0
:10CEF000884208D001F58061884204D001F5806144
:10CF0000884218BF5B08B3FBF2F301A9013BADF8FF
:10CF1000043059F06DFE05B030BD00BF0004014083
:10CF2000401B00200000014038B50446FFF7C8FF51
:10CF30002168154D0A8892B242F00102002305F6DD
:10CF400034500A8050F83320914207D001330E2B21
:10CF5000F8D1BDE838400020FBF790BC05EBC305D5
:10CF600095F8394D2046FBF789FC1B2C06D02E2C5A
:10CF700009D1BDE838402C20FBF780BCBDE8384023
:10CF80001920FBF77BBC38BD102C070870B504686E
:10CF9000A30AA3F58013522B50D8364D2B4493F897
:10CFA00000C4BCF10D0F49D84379022023FA00F5E3
:10CFB0000CEB8C03A8400CEB43031FFA80FE2B44C0
:10CFC000002949D0A5892C48ADB200EB830645EA7B
:10CFD0000E05C6F80814C6F81824A581EFF31186CB
:10CFE000502383F312882C2202FB0C03D3F8041481
:10CFF00061B3C3F82814214B04310CEB8C02204D93
:10D000000CEB4202920005EB020E1032134453F86F
:10D01000042F0AB10A60111D7345F8D10022F3B242
:10D020000A6083F311882C2303FB0C00D0F828340A
:10D030002BB1A3899BB243F00103A38170BDA389E7
:10D0400023F001031B041B0CA38170BD0B4B02FBDF
:10D050000C3202F12401D0E7A08980B220EA0E0050
:10D06000A081054800EB8305C5F80814C5F818240D
:10D07000B4E700BF102C0708401B0020441F00200D
:10D08000641F002001490248FCF7A0BC441F002097
:10D090000000014010B5064C064804F20441FCF7BC
:10D0A00095FC04F5B2610448BDE81040FCF78EBC65
:10D0B000401B0020000001400044014002494FF0A5
:10D0C0008040FCF783BC00BF701F0020014902486C
:10D0D000FCF77CBC9C1F0020000400400149024872
:10D0E000FCF774BCC81F002000080040014902483A
:10D0F000FCF76CBCF41F0020000C00400149024802
:10D10000FCF764BC782000200004014010B5064CF8
:10D11000064804F5A761FCF759FC04F214610448C1
:10D12000BDE81040FCF752BC401B00200004014049
:10D13000001C004001490248FCF748BCA420002024
:10D140000040014001490248FCF740BCFC2000209F
:10D150000048014001490248FCF738BC2821002062
:10D160000018004001490248FCF730BC8021002033
:10D170000020004010B50C2935D8DFE801F09134CB
:10D18000343463343434073434343500038C5488F5
:10D19000B2F80CE023F480731B041B0C0384038C93
:10D1A000B0F804C0818B21F073014EEA040E09042B
:10D1B000148823F40073090C1B042143764C1B0CC8
:10D1C00043EA0E23A0421FFA8CFC9BB200F094802D
:10D1D00004F58064A04200F08F809268A0F804C03B
:10D1E0008183C263038410BD038C5488B2F80CE0C1
:10D1F00023F480531B041B0C0384038CB0F804C07D
:10D20000818B21F4E6414EEA040E0904148823F4CC
:10D210000053090C41EA04211B045F4C1B0C43EA38
:10D220000E33A0421FFA8CFC9BB289B27ED004F56B
:10D230008064A0427AD09268A0F804C0818302641E
:10D24000038410BD038C5488B2F80CE023F0100363
:10D250001B041B0C0384038CB0F804C0018B21F465
:10D26000E6414EEA040E0904148823F02003090C59
:10D2700041EA04211B04484C1B0C43EA0E13A04254
:10D280001FFA8CFC9BB289B26CD004F58064A0427A
:10D2900068D09268A0F804C001838263038410BD43
:10D2A000038C5488B2F80CE023F001031B041B0C20
:10D2B0000384038CB0F804C0018B21F073014EEAA3
:10D2C000040E0904148823F00203090C1B042143F3
:10D2D000314C1B0C43EA0E03A0421FFA8CFC9BB29C
:10D2E0002CD004F58064A04228D09268A0F804C035
:10D2F00001834263038410BDD489B2F810E023F4A3
:10D30000006343EA0423548A2CF4405C4EEA040E82
:10D310004CEA0E1C94884FF6FF3E03EA0E0E4EEACE
:10D32000042E1FFA8CFC1FFA8EF356E7148A2CF495
:10D33000804C4CEA841C1FFA8CFC7CE7D489B2F840
:10D3400010E023F008032343548A2CF4407C4EEA77
:10D35000040E948823F004034CEA0E0C1FFA8CFC94
:10D360002343C2E7D489B2F810E023F0800343EAF4
:10D370000413548A2CF4406C4EEA040E4CEA8E0CD2
:10D3800094884FF6BF7E03EA0E0E4EEA041E1FFA83
:10D390008CFC1FFA8EF37CE7000001402DE9F04F72
:10D3A000AC4BDFF8CC9293F8DE38AB4CAB4D93B07E
:10D3B0005F1E0293FBB200930023CB460193DFF87C
:10D3C000B4A2DAF80070BB0AA3F58013522B00F266
:10D3D000FF80234493F800340D2B00F2F98015F9F7
:10D3E0000380029B012B00F0FA80029B022B02D1EA
:10D3F000B8F1080F6DD100263146404610F01EFEF0
:10D4000010F0AAFE90F9003013B1542B40F0EC80DC
:10D410000436B6B2102EEFD1019B002113B34A4659
:10D420000BE0234493F800340D2B0DD8EB56434505
:10D430000DD002F580725A4512D0906803689B0A9D
:10D44000A3F58013522BECD900234345F1D1437946
:10D450009AF8050098423CD002F580725A45ECD10A
:10D46000002936D15046FBF72DF8C3B2022B9AF8AB
:10D4700005E000F2FF8200F1010C774A0CEB4C0C46
:10D480004FEA8C0C02F57D7003E02C32824200F0F2
:10D49000F18213689F42F8D113797345F5D152F8A0
:10D4A0000C30002BF1D06E48002103E0102900F170
:10D4B0002C000ED042689A428C4601F10101F5D150
:10D4C000684B2C2202FB0C3C9CF95831002B00F0DD
:10D4D0009B82654B0AF11C0A9A457FF472AF019B4F
:10D4E0000133042B01930BF5807B7FF468AF5F4A17
:10D4F00092F8C835013302F5816802934FF0010BB1
:10D50000029B9B4561D0534BD8F80C6093F8E029FF
:10D5100098F810300193002E57D0544BD6F800A045
:10D520005868B38800930AF13F4505F57E05002849
:10D530004FEA952561DD002302E00133834259D093
:10D540001C0259F80410A942F7D14C44019B88F8F9
:10D550001030009BC8F80C60B3FA83F5C5F11F03C7
:10D560004FF00302C8F80430C8F81840B27186F8CA
:10D5700007B0E16C606C5E0001220327B74002FA3D
:10D5800006F63143E16439490E78384302FA03F371
:10D590006064276DD4F8A00099B2002E00F02782B5
:10D5A0003B432365009BAAF81830FAF7C5FF2046D5
:10D5B0000BF1010BFBF706F940F20113BBF1090F68
:10D5C000A8F81C3008F120089AD113B0BDE8F08FFC
:10D5D000009B012B7FF67DAF4FF000080BE7B8F101
:10D5E000010F3FF408AF74E7019B0121002B7FF48A
:10D5F00016AF6EE7042B00F00A821C4B03EB0023EE
:10D600000102059119690391002900F026826C1C22
:10D610000492E4B24FF054029D6083F8042183F831
:10D620000541124B01305860039B5D791F680695D8
:10D630001846FAF747FFC3B2022B00F21B8200F133
:10D64000010C0CEB4C0C044B049A4FEA8C0C00219F
:10D65000AE4617E0401B0020102C070810D1070829
:10D66000C002002088010020E43D070804000010EB
:10D670000C000010E83C07080131172903F12C03C6
:10D6800000F0F8811D68AF42F6D11D797545F3D1E0
:10D6900053F80C50002DEFD02C2300EB400001FB81
:10D6A00003F37649764F03EB80030B440598196921
:10D6B000744B0A910344C3E906519446002339464A
:10D6C00004E0102B01F12C013FF47FAF4A68AA421D
:10D6D000184603F10103F4D16B4B04952C2101FB97
:10D6E0000031624691F95831002B7FF46EAF059DF1
:10D6F000664881F85941EB1103EB252303EB031333
:10D7000000EB83038C2408932B1204FB03F300F536
:10D710004C7000EB430009905A4843190898C3F82D
:10D72000A8000998C3F8F000542081F8580133216B
:10D73000C3F8AC100399C3F8F440C3F80CA0086810
:10D740005349544B07908842D3F8003109EB050444
:10D7500010D0A1F5806188420CD001F5804188424B
:10D7600008D001F58061884204D001F580618842CB
:10D7700018BF5B08062A00F05681072A4648474A28
:10D78000474918BF1146474A18BF02460598B3FBE0
:10D79000F2F2B3FBF1F33B49079D0144013A92B227
:10D7A000013BA1F8B030A1F8682000F1540100233A
:10D7B000A4F85C30284649F80130A265494459F084
:10D7C00017FA0023ADF838302B8806999BB243F046
:10D7D00080032B802B8823F001031B041B0C2B8060
:10D7E000314B0D9328464FF480730225CDE9105339
:10D7F0000DAA0A230F93FFF7BDFC039B187900289D
:10D8000040F01481079A049D13889BB243F00103F2
:10D810001380002004E0102807F12C0700F0FE80A0
:10D820007B689D42024600F10100F4D1049516493F
:10D830001E4F049DDDF81CC02C2303FB02131C4A61
:10D84000D3F838311B498B4214BF4FF480034FF497
:10D850000013116B0B431363069A0C2A9CBF164BE3
:10D8600003EB4203059A98BFB3F8DC10054B134451
:10D8700088BF00219982002327E000BF102C0708F1
:10D88000C002002004000010880100202425002090
:10D8900000040140401B0020D0DD06004495080034
:10D8A0001055220040771B0060000100F80E0010A8
:10D8B0000038024000600240083D0708944500F02F
:10D8C000D3800133042B00F0D28057F83320002A94
:10D8D000F4D16A4A04951546D2F8F02E0132C5F803
:10D8E000F02E05EBC302079DC2F8F45EDB003B445B
:10D8F00000279A8811439980902261492346FEF7B8
:10D9000077F804980A9D036843F010030360089BAE
:10D91000E3664FF48063E367059B656603F164018A
:10D920004FF400320423C4E9232340233322C4E903
:10D930001C320AF118024FF4805CA2664FF4804258
:10D94000C4E920C24944C4E92577A767C4F88870B0
