:020000040800F2
:10000000F0FF0010310307089D6A0608C9E70008E1
:10001000D1030708D1030708D10307080000000037
:10002000000000000000000000000000A16A0608B7
:10003000A56A060800000000A96A060831A50008A4
:10004000D1030708D1030708D1030708D103070824
:10005000D1030708D1030708D1BC0008F5BC00088C
:1000600019BD00083DBD000861BD000885B7000846
:1000700099B70008ADB70008C1B70008D5B70008A8
:10008000E9B70008FDB70008D1030708D103070846
:10009000D1030708D1030708D103070885BD00086D
:1000A00079D10008D9D0000889D10008C9D000084A
:1000B00001D1000811D1000821D1000821B10008A8
:1000C00015C7000829B1000819C70008D10307089F
:1000D000D1030708B1560608B1570608D9580608D3
:1000E000C1BD0008D1030708B16A060899D100080C
:1000F00051D10008A9D1000841D1000811B8000869
:10010000D1030708D103070831D10008D10307083C
:10011000015A0608295B0608D1030708D10307081E
:1001200025B8000839B800084DB8000861B80008C3
:1001300075B80008D1030708D1030708D1030708E1
:10014000D1030708D1030708D1030708AD6A0608E1
:1001500089B800089DB80008B1B80008515C0608CD
:1001600031B100081DC70008D1030708D1030708F3
:10017000D1030708D1030708D1030708D1030708F3
:08018000D1030708D1030708B1
:10800000074BD0F8EC105B68D0F8F8205B1A9A4266
:10801000B8BFC0F8F830012380F824310020704741
:10802000001000E02C22C24B00FB02F22DE9F041CF
:1080300003EB020E9A585268918ACD0700F18780AF
:108040005FFA81FC1CF0020F4ED0BFF35F8F9EF8E9
:108050001C100129CCB200F0F3804100148BBFF357
:108060005F8F4FF02C0C0CFB003C9CF81C40022C4A
:1080700000F013814FF02C0C0CFB003C9CF81C40D2
:10808000032C09D19CF81E4034B10C181C4494F800
:108090008450002D40F06981B2F804C01FFA8CFCB6
:1080A0004CF4806CA2F804C001EB000C9C449CF9D9
:1080B00086E04FF02C0C0CFB003C9CF81CC00CF133
:1080C000010CF4450ED101441944002481F8844088
:1080D00091F88510002940F0D9802C2202FB003352
:1080E00000225A76BDE8F0811CF0040F66D18CB2F4
:1080F00000EB40015E181CF0400C96F986804FEAB8
:10810000400100F0DF80158ADEF82470EDB207F838
:1081100008505FFA88FC0CF1010464B29EF81C70F0
:1081200086F88640E51CAF42A64600F049812C2522
:1081300005FB00352D7FAC42BBD10C180CF1020CB5
:108140001C444FFA8CFC84F886C0E646B1E71188DF
:1081500021F400610904090C1180118889B241F4ED
:108160008061118000EB400C9C449EF81E4000256D
:1081700041008CF88650002C50D09CF88440002C94
:1081800048D001441944012481F884402C2101FB8A
:108190000031097F022904D1118889B241F40061BC
:1081A00011802C2101FB0031897E41F001011182F7
:1081B0002C2202FB00331B7FBDE8F08100EB400462
:1081C0001C449EF81E504FF0010C410084F885C0FD
:1081D000002D7BD094F88450002D7CD12C2404FBFE
:1081E0000034647F002C00F0C3801488A4B244F4EF
:1081F000007414800C181C4494F886E00EF1010EF3
:108200004FFA8EFE84F886E0B2F800C01CF4807F3E
:10821000FAD14EE79EF81B40FF2CB2D02C2404FB71
:10822000003494F81AC00CF0FE0CA2F810C0E27EE4
:10823000FF2ABDD001441944FF2281F88620B7E708
:108240009EF81E1000293FF408AF00EB40051D44C6
:10825000410095F88460002E3FF400AF168826F4A4
:1082600080663604360C1680BFF35F8F85F8854034
:10827000148B148895F986E0A4B244F40074148039
:108280009488A4B244F48064948012E7918821F425
:1082900040710904090C91801FE79CF81E40002CD6
:1082A0003FF4E8AE0C181C4494F88450002D3FF4C1
:1082B000E1AE94F986E0148824F480642404240C4C
:1082C00014804BE0240635D4C646F2E694F8844088
:1082D000002C83D089E79EF81C50DEF82460022D24
:1082E000158852D925F480652D042D0C1580158A2A
:1082F00094F986C0EDB206F80C501588DEF82470AB
:10830000ADB245F4007515805FFA8CFC168A0CF14D
:1083100001056DB2F6B27E550CF1020E4FFA8EFEDB
:1083200084F886E09488A4B244F4806494806BE777
:10833000501B0020B8F1FF3F49D0DEF8204014F870
:108340000850EDB215829EF81C5008F1010464B289
:10835000A54286F88640A6467FF4ABAE948824F406
:1083600080642404240C9480A3E694F986E0F5E765
:108370001488A4B244F4807414800C181C440125A1
:1083800094F986E084F884503EE7ADB245F4007578
:108390001580158A94F986C0EDB206F80C505FFA84
:1083A0008CFC168ADEF824700CF101056DB20CF11C
:1083B000030EF6B24FFA8EFE7E5584F886E023E770
:1083C000958825F480652D042D0C9580AFE69EF8E8
:1083D0001B1086F886C0C9B211829EF81E1021B902
:1083E0009EF81C1000297FF4E3AE918821F480618F
:1083F0000904090C9180DBE610B404698269E46821
:108400004168146000234024C2E902344469936344
:108410000C31C2E90433C2E90633C2E90833C2E9C8
:108420000A33C2E90C33516094B1C269E4689363C2
:108430004FF48030C2E90041C2E90233C2E904339B
:10844000C2E90633C2E90833C2E90A03C2E90C33C0
:108450005DF8044B704700BFD0E9001300221A609A
:10846000037D1F2B07D9203B202202FA03F343F0A0
:108470001803CB607047202202FA03F343F018037D
:108480008B6070471B4B016803F57D7C02E02C3349
:1084900063452CD01A688A42F9D170B593F804E08C
:1084A000427996450BD02C33634505D01A688A4231
:1084B000F4D02C336345F9D14FF0FF3070BD9E46A8
:1084C0008468DEF80C50A5424FF0000208D001325B
:1084D000032A0EF10C0EE6D0DEF80C50A542F6D1C0
:1084E000DEF81050C668B542F1D150B270BD4FF001
:1084F000FF30704790310708002A4FEA014C30B531
:1085000003460ABFE6468E468C4600F1C0050024AD
:1085100019689A6841EA0C0142EA0E029A60C3E9BE
:1085200000140C33AB42F3D1D0F8C030C0F8C440D3
:1085300043EA0E03C0F8C030C0F8C84030BD00BFE9
:10854000C3691969B3F80CC00A6830B49C6822F09A
:10855000010224680A60A28992B222EA0C02A28176
:10856000027D00681F2A06D94568203A08249440F5
:108570002C4245D0FEE70568082494402C42F9D1EE
:10858000202404FA02F28260264A1278002A35D0AA
:108590001A7E012A39D0D3F8F4200132C3F8F4202E
:1085A000EFF31181502282F3128858685C6C0268E4
:1085B00022EA04029C6C2243C9B2026081F3118852
:1085C000D3E90C401A6999681D6C09681460506100
:1085D000D3E90E40546090600024B3F8A800D56041
:1085E0004C62C86210680124204310601C7683F836
:1085F000F1408A899B8913439BB28B8130BC7047C1
:10860000202404FA02F2C260BEE7002283F8F120BF
:10861000D3F8F8000A68013022F00102C3F8F8002C
:108620000A60EBE7040000102DE9F041204C65687A
:10863000002D33DD002304F1080218461F460126F1
:1086400004EB032C01339CF8F91001F0FF0E59B92B
:10865000AB4202F58072F3D120B1164B93F88D2016
:10866000542A1ED0BDE8F0819168B2F80C807046A3
:10867000D1F800E0BEF80C1089B221EA0801AEF88A
:108680000C10D2F810E0DEF8001021F00101CEF855
:1086900000108CF8F97082F8F260D9E70020BDE88C
:1086A000F081B3F894200132A3F89420BDE8F08162
:1086B00004000010501B002010B40C4C6368002B09
:1086C00011DD002004F1080C0146DCF8A03003F1B4
:1086D000C00259600C339342FBD16368013083427E
:1086E0000CF5807CF1DC5DF8044B70470400001051
:1086F000F0B5414C04EB401393F8243403B9F0BDBA
:108700003E4B93F8A05093F8A12095424FEA401CAD
:108710000CD002EB420E03EBCE0E9EF8A460771E47
:10872000012F4FEA420E58D9032E51D004EB0C0012
:10873000A0F80814EFF31182902383F3128890F8C5
:108740000A34B0F8081443EA41030021D2B29BB2C4
:1087500080F80A1482F311882178D0F820441A098D
:1087600082EA13225A40C9B1D0F80C14D4F8A040C0
:10877000D2431B019BB202F00F0201208840134339
:1087800004F1C0015A0013F4004F93B202D16268A1
:10879000024362600C34A142F4D1F0BDD0F80C1455
:1087A000D4F8A0401B0110319BB202F00F0201204F
:1087B0008840134304F1C0015A0013F4004F93B2F0
:1087C00002D16268024362600C34A142F4D1F0BD70
:1087D000561C06F00306AE42A8D0964403EBCE0327
:1087E000184490F8B1100029A0D004EB0C0301222A
:1087F00083F80A249AE700BF04000010501B0020F1
:10880000704700BF024B03EB401393F825047047F9
:10881000040000104368B0F8502010B41A83EFF33E
:108820001182502383F312884168446C0B6823EA59
:108830000403C46C2343D2B20B6082F31188D0E9E5
:1088400007418268036912681C605961D0E90941D7
:108850005C60C46A9960B0F86010DC600023D1628B
:108860005DF8044B0376704710B4037D02681F2B3C
:1088700009D95468203B202101FA03F31C4215D189
:108880005DF8044B70471468202101FA03F31C4281
:10889000F6D00D494068002481F8044101685DF874
:1088A000044B21F001010160936070470649406864
:1088B000002481F8044101685DF8044B21F00101B6
:1088C0000160D360704700BF501B0020104BDA6876
:1088D000D243C2F30222C2F1040301214FF00F0C74
:1088E000DBB201FA03F34CFA02F210B40A40094C6D
:1088F000DBB213431B012218DBB282F800334309B9
:1089000000F01F00814044F823105DF8044B7047CD
:1089100000ED00E000E100E010B4037D02681F2BD1
:1089200009D95468203B202101FA03F31C4215D1D8
:108930005DF8044B70471468202101FA03F31C42D0
:10894000F6D00D494068002481F8054101685DF8C2
:10895000044B21F0010101609360704706494068B3
:10896000002481F8054101685DF8044B21F0010104
:108970000160D360704700BF501B002012230148E4
:108980000B80704788010020042301480B8070474A
:108990009C0100201C48D0F8103AD0F8182A10B5D5
:1089A0009B184FF01A040C8001D1184810BD174ACB
:1089B000D0F8140A02F1100411464FF0000E4FEAED
:1089C000137CB3F1204F34BF0CF1300C0CF1370C99
:1089D00081F802C081F803E002318C424FEA0313B0
:1089E000EDD102F108040021030FB0F1204F34BF94
:1089F000303337339374D174023294424FEA00100B
:108A0000F2D1024810BD00BF0070FF1FA00100207E
:108A1000426A806A131A58425841704790F84F389A
:108A200030B53BB990F84D1890F84E380124DAB2C1
:108A3000914200D830BDB0F8565804FA03F22A43E8
:108A4000A0F856280133F2E70379024613F001003B
:108A500005D0D369D068116A01385B1A1840704795
:108A600010B50379DB07044601D4002010BDFFF7E1
:108A7000EBFF0028F9D0236A6269D05C236AE268C0
:108A80000133B3FBF2F102FB1133C0B22362EDE715
:108A900003799B070AD5436A8269D154436A026904
:108AA0000133B3FBF2F102FB1133436270477047AD
:108AB000017170470379024613F0020007D0536A30
:108AC0001069916A01385B1A0340DBB2C01A704723
:108AD00082B01D4B1D49002201920193019B04337A
:108AE0000193019B1A688B6803F00C03042B02D0DE
:108AF000082B05D0164A174BC3F8082102B070475F
:108B000048684B68400203F03F0314D44A68104998
:108B1000B1FBF3F3C2F3881203FB02F20B4B5B6869
:108B2000C3F3014301335B00B2FBF3F2094BC3F81B
:108B3000082102B070474968B2FBF3F2C1F3881311
:108B400003FB02F2EAE700BF502800400038024071
:108B50000024F400501B00204A484B494B4BDFF8DF
:108B600030C12DE9F04F4FF0010A4FF002094FF0EC
:108B7000040808271026202540244FF0800E30F8E6
:108B8000022B12F0010F03D01960A3F804A00833E0
:108B900012F0020F03D01960A3F80490083312F00A
:108BA000040F03D01960A3F80480083312F0080FF3
:108BB00002D019609F80083312F0100F02D01960A4
:108BC0009E80083312F0200F02D019609D80083378
:108BD00012F0400F02D019609C80083312F0800F11
:108BE00003D01960A3F804E0083312F4807F05D0A5
:108BF0004FF4807B1960A3F804B0083312F4007FAF
:108C000005D04FF4007B1960A3F804B0083312F4C8
:108C1000806F05D04FF4806B1960A3F804B008335F
:108C200012F4006F05D04FF4006B1960A3F804B084
:108C3000083312F4805F05D04FF4805B1960A3F80D
:108C400004B0083312F4005F05D04FF4005B1960E4
:108C5000A3F804B0083312F4804F05D04FF4804BD2
:108C60001960A3F804B00833D20B04D04FF40042CB
:108C700019609A80083301F5806161457FF47FAF08
:108C8000BDE8F08F84350708000002405C1C00201E
:108C900000180240072809D8054B8C2202FB00333C
:108CA000B3F80805B0FA80F040097047002070471B
:108CB00004000010072806D8034B8C2202FB003367
:108CC000012283F80A2570470400001070B53F4C5C
:108CD0008C2303FB004393F8173503B970BD3C4B5D
:108CE00093F8A0E093F8A12096450CD002EB420C3B
:108CF00003EBCC0C9CF8A4506E1E012E4FEA420CE4
:108D000044D9032D3DD08C2202FB0042A2F8081565
:108D1000EFF31181902383F31288B2F8085592F88B
:108D20000A3543EA45030025C9B29BB282F80A55C9
:108D300081F311881A09217882EA13225A4001B17D
:108D4000D2431B019BB294F86C19D4F8685902F015
:108D50000F021A438C2303FB004431BB0121D4F8DA
:108D60009005A847D4F88C15B4F814558A8AD4F81D
:108D700088352A438A8258601A6842F001021A60D4
:108D800070BD551C05F003057545BCD0944403EB3C
:108D9000CC03034493F8B1100029B4D08C2303FB17
:108DA0000043012283F80A25ADE7D4F81035D4F842
:108DB0008C155B79086903F0FC0318440421A8476B
:108DC000D4F88C358000988170BD00BF040000107D
:108DD000501B002010B584464FEA810E102312F478
:108DE000004F14BF0E2407245200013BCCF8004072
:108DF00092B2F444F3D100EB81128C01035142F89A
:108E00002130122010BD00BF10B584464FEA810EFC
:108E10000424130B03EB430318331201013CCCF879
:108E2000003092B2F444F4D100EB01130A018450F3
:108E300043F82140062010BD704700BF704700BFB7
:108E4000034B00EB400003EBC00393F8810970472C
:108E500004000010064B93F8302A824283BF00EBD7
:108E6000400003EBC003D3F884090020704700BF23
:108E7000040000102AE700BF072808D8044B03EBC2
:108E8000401393F8242412B1012283F80A24704776
:108E900004000010072808D8054B03EB4013B3F873
:108EA0000804B0FA80F0400970470020704700BF06
:108EB00004000010054B93F8302A824286BF03EB72
:108EC0004013D3F814040020704700BF04000010C2
:108ED0001D4B93F8342AAAB3D3F8701909B10020B6
:108EE0000860012A2ED0D3F8881909B10020086043
:108EF000022A27D0D3F8A01909B100200860032A5C
:108F000020D0D3F8B81909B100200860042A19D07C
:108F1000D3F8D01909B100200860052A12D0D3F87F
:108F2000E81909B100200860062A0BD0D3F8001A0E
:108F300009B100200860072A04D0D3F8183A0BB111
:108F400000221A60704700BF040000101D4B93F808
:108F5000342AAAB3D3F8701909B100200860012A95
:108F60002ED0D3F8881909B100200860022A27D032
:108F7000D3F8A01909B100200860032A20D0D3F843
:108F8000B81909B100200860042A19D0D3F8D01903
:108F900009B100200860052A12D0D3F8E81909B1F8
:108FA00000200860062A0BD0D3F8001A09B100206F
:108FB0000860072A04D0D3F8183A0BB100221A60CF
:108FC000704700BF04000010B84B93F83230002BFC
:108FD00040F06A81B64B93F8342A002A00F064818D
:108FE00093F8801970B400294FD1D3F8701900207C
:108FF000012A086047D993F8981900296BD1D3F852
:1090000088190020022A08603DD993F8B019002978
:1090100040F0D280D3F8A0190020032A086032D98A
:1090200093F8C819002940F0EF80D3F8B819002050
:10903000042A086027D993F8E019002940F00C8130
:10904000D3F8D0190020052A08601CD993F8F81924
:10905000002940F03381D3F8E8190020062A08607F
:1090600011D993F8101A00295BD1D3F8001A002007
:10907000072A086007D993F8282A002A77D1D3F85D
:10908000183A00221A6070BC7047D3F87409810A3C
:10909000A1F580115229A8D8864C214491F80014DA
:1090A0000D29A2D8EFF31184502282F31288824D49
:1090B000466A828A4FF02C0C0CFB015192B20136A9
:1090C00042F00102C1F83464E4B2828284F3118870
:1090D00093F8342A89E7D3F88C09810AA1F5801125
:1090E00052298CD8734C214491F800140D2986D84C
:1090F000EFF31184502282F312886F4D466A828A00
:109100004FF02C0C0CFB015192B2013642F00102DF
:10911000C1F83464E4B2828284F3118893F8342A6B
:109120006DE7D3F8040A810AA1F5801152299CD871
:10913000604C214491F800140D2996D8EFF3118466
:10914000502282F312885C4D466A828A4FF02C0CC2
:109150000CFB015192B2013642F00102C1F83464B5
:10916000E4B2828284F3118893F8342A7DE7D3F83D
:109170001C1A8A0AA2F58012522A80D84D4802444D
:1091800092F800040D283FF67AAFEFF311845022D5
:1091900082F31288484D4E6A8A8A4FF02C0C0CFBE1
:1091A000005092B2013642F00102C0F83464E4B2D9
:1091B0008A8284F3118862E7D3F8A409810AA1F5B1
:1091C000801152293FF626AF3A4C214491F80064B1
:1091D0000D2E3FF61FAFEFF31181502282F312885C
:1091E000354C456A828A4FF02C0C0CFB064492B237
:1091F000013542F00102C4F83454C9B2828281F3CD
:10920000118893F8342A05E7D3F8BC09810AA1F53F
:10921000801152293FF609AF264C214491F80014E1
:109220000D293FF602AFEFF31184502282F312882A
:10923000214D466A828A4FF02C0C0CFB015192B2F0
:10924000013642F00102C1F83464E4B2828284F350
:10925000118893F8342AE8E6D3F8D409810AA1F5F5
:10926000801152293FF6ECAE124C214491F80014C3
:109270000D293FF6E5AEEFF31184502282F31288F8
:109280000D4D466A828A4FF02C0C0CFB015192B2B4
:10929000013642F00102C1F83464E4B2828284F300
:1092A000118893F8342ACBE6704700BF880100206C
:1092B0000400001090310708501B0020D3F8EC097F
:1092C000810AA1F5801152293FF6C5AE0F4C214409
:1092D00091F800640D2E3FF6BEAEEFF311815022DF
:1092E00082F312880A4C456A828A4FF02C0C0CFBE0
:1092F000064492B2013542F00102C4F83454C9B2B6
:10930000828281F3118893F8342AA4E69031070809
:10931000501B002000EE100AB8EE400A704700BF54
:10932000BCEEC00A10EE103A98B2704701234377A2
:109330000020704708B503468269006BD96A024471
:109340009A6101B18847002008BD00BF436A1B68CD
:109350001B6A5B685B78024613F0010008BF507718
:10936000704700BFF0B5224C224A234B95B005460A
:1093700004F13C00CDE90002049304F14000002315
:10938000CDE90503CDE90E331C4A09920B9304F194
:1093900034021093139311936B6A2F7F0A9218680B
:1093A000012302228DF80C3007938DF820308DF8C0
:1093B00034308DF848303B1D02920E460C9364F019
:1093C000E3FD97B1330E84F835303634320C330A6E
:1093D00022706370A670686A69465BF06BF86B6A0E
:1093E000186864F0D1FD15B0F0BD3534EEE700BF6C
:1093F00088010020C42100204D9300082D9300080F
:1094000010B5044694B050220649684669F02CFC19
:10941000606A69465BF04EF8636A186864F0B4FDF0
:1094200014B010BDE4350708C2628161704700BF07
:109430002DE9F0410446406A00681E460F469046FA
:1094400064F0A2FD237FA069002B3DD0274D030EC1
:1094500085F84530052205F146039870EA67020C4D
:10946000000A58701A703B68C5F888300020D8F898
:109470000030C5F89030012E2363C5F8A00028D035
:10948000022E1FD1D8F80420C5F89800796885F815
:109490009400C5F89C1013441549C5F8A420012078
:1094A000236385F8A800C5F8AC10124B627F606A90
:1094B000A3F11401002A08BF19465AF0FBFFE36A22
:1094C0007BB1206BBDE8F0810B4B0422A3F1450575
:1094D000C3E7074B85F89460C5E92630C5F8A400BA
:1094E000E3E7636A186864F04FFDEAE7880100204B
:1094F00035930008E8010020CD010020704700BF2F
:1095000000B583B081610192049A0093C262012385
:109510006A4601A9FFF78CFF03B05DF804FB00BFAA
:10952000043070470D4B93F87C26D3F8781602442C
:10953000D2B283F87C2693F87C2601441206C3F845
:10954000781605D593F87C2682F0800283F87C2675
:10955000034B012283F8C420704700BF501B00203A
:10956000880100202DE9F047154FD7F88056ED0A05
:1095700020D00026B14607F5D7687419D7F884368D
:109580001048D3F828A0C7F8B09604EBD474641040
:1095900010234246E102D0470F280BDD0A4B03F1AE
:1095A000100153F8042B013207D18B42F9D1254623
:1095B000B542E2DCE802BDE8F087661CF8E700BFD0
:1095C000501B0020D4210020082200201A4BD3F881
:1095D000C816D3F8CC268A1A322A05DCD3F8E0263E
:1095E0008A1A002A0FDC704793F8D026D3F8D416D5
:1095F00002F0010219B108688988B2B9018300221A
:10960000C3F8E0267047D3F8D42682B11068928858
:1096100010B444693231224218BF42835DF8044BD2
:1096200008BF0283C3F8E01670474183E7E7323191
:10963000C3F8E016704700BF501B0020064AD2F85E
:10964000D4363BB192F8D0169A881B68C90754BF2C
:109650001A835A8300207047501B00204FF400707B
:10966000034B1060D3F8F0360B600020704700BF4A
:10967000501B0020002070470120704701207047D8
:109680000020704710B41C6994420CD394460A46DB
:1096900061448C42996938BFA4EB0C0261445DF8C7
:1096A000044B69F0E1BA5DF8044B704730B585B002
:1096B00068465CF0E1FD1048104AD0F8FC10009BB1
:1096C0000F4D41F08071C0F8FC10002400F1C8403B
:1096D000C2F8B05FA0F5650054601168094CA0F6AF
:1096E0007D60A0FB030341F001019B0CC4F820370F
:1096F000116005B030BD00BF00ED00E0001000E0DB
:1097000055CEACC5501B00202DE9F84F0130884CD8
:10971000884D01F1FF385FFA80FB1026012761F0C8
:109720009DFC4FF4FA794FF0E0214FF47A7C6B689E
:10973000C3F30803002B40F0D280EFF31183002B1A
:1097400040F0CD80D4F8C8368869D4F8C826934252
:10975000F8D1D4F828279042F4D8D4F820270CFB6D
:1097600002FEAEEB000EBEFBF2FE0CFB03EE6B68DE
:10977000C3F30803002B40F09280EFF31183002B1A
:1097800040F08D80D4F8C8368869D4F8C826934252
:10979000F8D1D4F828279042F4D8D4F820A70CFBAD
:1097A0000AF2121AB2FBFAF20CFB0323A3EB0E032C
:1097B000B3F57A7FDBD3B9F10109B8D158464FF43C
:1097C0007A7962F0FFF84FF0E021CC466B68C3F382
:1097D0000803002B40F09780EFF31183002B40F03B
:1097E0009280D4F8C8368869D4F8C8269342F8D154
:1097F000D4F828279042F4D8D4F820270CFB02FE96
:10980000AEEB000EBEFBF2FE0CFB03EE6B68C3F387
:10981000080323BBEFF311830BBBD4F8C836886968
:10982000D4F8C8269342F8D1D4F828279042F4D827
:10983000D4F820A70CFB0AF2121AB2FBFAF20CFBC6
:109840000323A3EB0E03B3F57A7FDFD3B9F101094C
:10985000BCD1B8F10108BFF462AFBDE8F88FEFF3F7
:10986000118386F31288D1F818A00A69D20344BF85
:10987000C4F82477D1F818A0D4F8C806D4F824275F
:10988000DBB283F311880244D4F820070CFB00F309
:10989000A3EB0A03B3FBF0F30CFB0233D1E7EFF3C6
:1098A000118386F31288D1F818A00A69D20344BF45
:1098B000C4F82477D1F818A0D4F8C806D4F824271F
:1098C000DBB283F311880244D4F820070CFB00F3C9
:1098D000A3EB0A03B3FBF0F30CFB023366E7EFF3F1
:1098E000118286F3128888690B69DB0344BFC4F8D0
:1098F00024778869D4F8C836D4F824E7D2B282F342
:109900001188734429E7EFF3118286F3128888697E
:109910000B69DB0344BFC4F824778869D4F8C836E0
:10992000D4F824E7D2B282F31188734464E700BF0D
:10993000501B002000ED00E02DE9F0411D4CDFF848
:109940007C801D4F82B004F54075012602E008348A
:10995000A54224D094F90630002BF8D1206800F1FC
:109960003F4303F57E0308EB932393F8A4345A098D
:10997000032A03F01F0306FA03F317D0042A11D0B9
:10998000022A02D17A6C13437B640023A1881A4611
:10999000CDE90036083464F06FF8A542DAD102B0A0
:1099A000BDE8F0813A6B13433B63EEE73A6C134337
:1099B0003B64EAE75C1C0020003802409031070855
:1099C00009494B6C10B5094C43F480434B64402269
:1099D000002104F22C7069F09FF94FF0FF33C4F8B6
:1099E0006C37C4F86F3710BD00380240501B0020A0
:1099F0002DE9F0411348144D4FF41A72002169F01B
:109A00008BF94FF00008A5F2AC4705F6880440F248
:109A1000222655F82810002354F8332091420BD009
:109A200001330E2BF8D1002008F1070860F0CAFEC0
:109A3000B045EED1BDE8F08107EBC30393F8380DD4
:109A4000F2E700BF5C1F00203C3607082DE9F84311
:109A5000038AB0F80C801FFA88F818EA030829D0A6
:109A600005460E464FF00047B8FA88F327FA03F28E
:109A7000D24391B21B3B298208EA0208042B16D874
:109A8000DFE803F04134271A0300B36A002B47D004
:109A900003F1FF3900231FFA89F9B362746A34B104
:109AA00023682046494698476468002CF8D1B8F1ED
:109AB000000FD9D1BDE8F88370680028F7D003689B
:109AC000002BF4D0696B89B29847B8F1000FCBD165
:109AD000F0E7B0680028EAD00368002BE7D0A96B54
:109AE00089B29847B8F1000FBED1E3E7F0680028CB
:109AF000DDD00368002BDAD0E96B89B29847B8F162
:109B0000000FB1D1D6E730690028D0D00368002B10
:109B1000CDD0296C89B29847B8F1000FA4D1C9E71C
:109B2000EB6A1FFA83F9B9E770B50B4C05460726B7
:109B3000013E00D170BD94F9000019F0B3FA031E84
:109B400008DBEA1861789171A178E954052BDCBF34
:109B5000E37813730434EBE7343F070810B5274B61
:109B600093F8A02093F8A1309A4242D1244A92F867
:109B7000F80AF8B192F86C4902F6382300EB40007D
:109B8000D2F8382A03EBC000B4B140F20D3C00E03B
:109B90001A6899689C894C600C6844F001040C6058
:109BA000A2F848C09189183389B241F48071834288
:109BB0009181EDD110BD1A68118821F0800109044E
:109BC0001833090C118033F8141CD162118889B242
:109BD00041F0800111805462B2F80CC033F8041CCB
:109BE00041EA0C0189B28342918123F8044CE2D10D
:109BF00010BD65F0CFFB0028B8D110BD501B002070
:109C00000400001010B5044667F0CCFE81B2204677
:109C1000BDE81040FEF76CBD10B5044667F0C2FE0B
:109C200081B22046BDE81040FFF750B838B50B4D63
:109C300000EB400005F5176303EBC00393ED027AD8
:109C4000D3ED037AE7EE007AC4002544B0EE670A4C
:109C500067F0A8FED5F87039186038BD0400001010
:109C60000A4608B5054920B905485CF057FD034888
:109C700008BD04485CF052FD004808BDC422002025
:109C8000B0D40708D8D4070810B5044C04480A46D5
:109C900021465CF043FD204610BD00BFC4220020D9
:109CA00000D5070810B5044C04480A4621465CF06C
:109CB00035FD204610BD00BFC422002014D5070882
:109CC00010B5044C04480A4621465CF027FD2046A6
:109CD00010BD00BFC422002020D50708F8B5A0F6AB
:109CE00068042379DB0725D5657994F84C3805F0AD
:109CF00001073D46FBB1D4F848341A68D36A5B08C3
:109D0000536294F8503823B1B4F85A380133A4F8A8
:109D10005A38606C85F0010160F0DCF9012384F8A9
:109D20004F38002384F84D3884F84E38A4F856385C
:109D300084F84C38F8BD94F84F68012E04BF94F8AD
:109D40004D3884F84E382046FEF768FE4EB90123A0
:109D500084F84F3887EA0301606CBDE8F84060F092
:109D6000B9B9002384F84F383946F5E738B5A0F67D
:109D700068040022606C344D03685A62A1F1290323
:109D8000302B31D895F8733895F874180133DBB25D
:109D9000012B85F8733809D9B4F8563885F873283B
:109DA0005B08A4F856384B1C85F8743895F874286D
:109DB0000023082AA4F8583815D185F87438B5F866
:109DC000763801339BB2032BA5F8763808D923796E
:109DD000DB0705D5E36A94F8560843B3216B98472F
:109DE0000023A4F8563838BD5B396C290CD8B4F878
:109DF000563885F873285B0843F08003A4F856387A
:109E000095F874380133CFE794F85138002BCDD151
:109E1000012185F87338A5F87638802384F8511825
:109E2000A4F8563885F8741860F054F9BEE7E36971
:109E30006269D054E369E2680133B3FBF2F102FBDB
:109E40001133E361CCE700BF501B0020C06900283C
:109E500036D003681A6A127B2ABBD3E904125B6806
:109E6000496872B110B4546800220A6022609A886E
:109E70005DF8044B22F003021204120C9A805AF08F
:109E80003DBF1A891206FCD41A89D20709D40022D0
:109E90000A609A8822F002021204120C9A805AF088
:109EA0002DBF9A89F0E78268002AD6D0116892887F
:109EB0000A83D3E904125B684968002AD2D1E0E73B
:109EC000704700BFC06900B97047016830B4D1E97C
:109ED00004424B6864687AB15568002222602A60A7
:109EE0009A8822F003021204120C9A800B6A1B7BE0
:109EF000A3B930BC5AF002BF1A891506FCD41A89DE
:109F0000D20714D4002222609A8822F0020212049E
:109F1000120C9A800B6A1B7B002BEAD08368002B03
:109F2000E7D01A689B88138330BC5AF0E7BE9A8941
:109F3000E5E700BF38B590F82830012B044606D07D
:109F4000407F08B9012038BD0023637738BD406ADF
:109F500003681A7B92B9637F002BF3D00A4D0B493B
:109F6000022305F678025AF073F995F87938D84348
:109F700003F0010300F001006377E7E71B6A002BA1
:109F8000E9D0002038BD00BF501B00205002002047
:109F900038B5044694F82830012B07D0637F0BB105
:109FA00000236377012038BD1B6A23B1606A036810
:109FB0001A7B002AF8D1637F002BF3D0074D0849A4
:109FC000022305F678025AF043F995F8793803F040
:109FD0000102DB076277E5D5DCE700BF501B0020FC
:109FE000500200202DE9F843DDF820800F46154689
:109FF0000021202204461E4668F08EFEB8F1000FB4
:10A000000CD0D8F80030E3811B0C2382D8F8043040
:10A01000B8F80A20E3821B0C62822383384665F07D
:10A020009FFCEB0619D4431EB8B107EB000C01E00E
:10A03000013B12D31CF801EDBEF12E0FF8D1C01A6E
:10A04000421E032AA8BF0322082B03F10109A8BF5F
:10A0500008239046B9441A4606E008280246B94645
:10A06000A8BF08224FF000084FF020333946236084
:10A070006360204668F0F8FD04F10800154B238169
:10A0800042464946837068F0EFFD611EE21D11F8FB
:10A0900001CFACF16103192B9CBFACF1200C81F80E
:10A0A00000C09142F3D104F10A0011F8013FA3F17D
:10A0B0006102192A9CBF203B0B708142F5D1182305
:10A0C0002373330CA382E572099B6683E361BDE8C9
:10A0D000F88300BF202020002DE9F04FDFF84CB4BA
:10A0E000DBF8C80685B0CBF8CC06002B60D0134453
:10A0F0000C46174601F5FE7A99461FE0002F64D002
:10A10000DBF8FC36BB4200F0C680DBF8F836BB4219
:10A1100000F0F880DBF80037DBF80417BB424BD8BF
:10A12000B94200F27081791A20465FF023FD0137B1
:10A130004F4504F500740AF5007A39D0DBF808378A
:10A14000BB42DBD8DBF81857FB1A296BDA0802325E
:10A150008A4203F0070602D3AB6B9A420BD9294619
:10A16000104602925FF0D6FC029A0546002800F0E5
:10A170006A81CBF818072B79002B40F01E81D5F8A7
:10A180002880B8F1000F00F057812B6BD21AEB68D2
:10A1900006EBC20203EB422220462B464FF400712D
:10A1A0000137C0474F4504F500740AF5007AC5D160
:10A1B000002005B0BDE8F08FB942B4D94FF4007269
:10A1C0000021204668F0A8FDB1E74FF4007239463F
:10A1D000204668F0A1FD802384F8BE310C2384F86A
:10A1E000C231DBF8F816C54ADBF8F036C4F8C61100
:10A1F0009142C4F8CA3100F30B81C14AC14D82FBC0
:10A20000010285FB01050A44C817C0EB6212C0EBCE
:10A210002530BD4D84F8C10185FB0265C2EB821675
:10A220008010891B013120F03F0015440843D117ED
:10A23000C1EBE5110A4484F8BF21B04A84F8C0019B
:10A24000013B934200F3F080AD4AAE4882FB03121B
:10A2500080FB03101A44D917C1EB6212C1EB203105
:10A26000A94884F8C51180FB0250C2EB8215891001
:10A270005B1B013321F03F0110441943D317C3EB9B
:10A28000E0131A4484F8C41184F8C3214AF6552314
:10A29000A4F8FE314BE74FF0FF3384F8EC3184F83B
:10A2A000ED3184F8EE3184F8EF315223237063707E
:10A2B0006123A37084F8E7314123E37084F8E63129
:10A2C0007223002584F8E43184F8E531DBF8103797
:10A2D000C4F8E8314FF4F0722946201D68F01CFDE7
:10A2E000552384F8FE316FF05503C4F8F051C4F8DB
:10A2F000F451C4F8F85184F8FC5184F8FD5184F805
:10A30000FF3114E74FF400720021204668F004FD8D
:10A310007E4B03CB45F6EB0323809023C4F8071054
:10A32000A37002220821F823C4F803006173227489
:10A330006375DBF8F0362273A27384F82C20DBF807
:10A34000F8269B1A2362DBF80027DBF804379B1AF8
:10A3500063620023E372E3736377A377E37784F8A0
:10A360002D3084F82E3084F82F3084F83130684B4B
:10A37000A361684BC4F842303E232377012384F85D
:10A380003030654A802384F8403084F846104AF61D
:10A390005521A4F8FE1103CA604BC4F84700C4F865
:10A3A0004B1003CB1388A4F84F309378C4F85200B5
:10A3B000C4F8561084F85130B9E64FF40072002109
:10A3C000204668F0A9FC002E44D12B6C04F1200833
:10A3D000002B7BD02B6B52491122CDE90066204621
:10A3E000FFF700FE2B6C1A6C002A7ED01B6B4D49C8
:10A3F000CDE9006640461122FFF7F4FD04F1400864
:10A400004FF4E0736DE0F91A20465FF0B3FB8EE67F
:10A41000FF2284F8C1214FF6FF72A4F8BF21374A0A
:10A42000013B93427FF710AFFF2384F8C5314FF60D
:10A43000FF73A4F8C33129E741464FF40072204668
:10A4400068F06AFC73E6384A231F43F8042F9A45E4
:10A45000FBD16CE6D5E910253301002A43D0023B3D
:10A46000002D3FF464AE013BAD6CF9D1A0464FF432
:10A470000073002D3FF45BAECDE9027A08EB0306D2
:10A48000A24608E00024CDE900C4FFF7ABFDAD6CA7
:10A49000BDB1B04515D02C7929682B6B404605F12C
:10A4A0001C0C112208F12008002CEBD16A792C69D0
:10A4B00042F02102CDE900C4FFF794FDAD6C002D00
:10A4C000E7D15446029FDDF80CA030E6CDE90066E6
:10A4D0003346DBF8F41608222046FFF783FD4FF4DD
:10A4E000F0736D6CC5E7013BBAE7CDE900660D4935
:10A4F000334640461122FFF775FD7FE7FF03FB005F
:10A5000083200882975545418180808038D507088F
:10A510003F00FF0029940E0D44D5070850D50708C9
:10A5200030D5070834D50708DEADBEEF501B00203C
:10A5300010B4EFF31182102383F312880A4BD3F87F
:10A54000C8164FF0E0200131C3F8C8168169C3F87E
:10A5500028170024C3F824470369D3B283F3118872
:10A560005DF8044B704700BF501B002010B4EFF3A0
:10A570001181102383F312884FF0E022C9B294694D
:10A58000136913F4803F0D4B1EBF0120C3F824074D
:10A590009469D3F8C806D3F8242781F31188D3F837
:10A5A000201702444FF47A7000FB01F31B1B5DF887
:10A5B000044BB3FBF1F300FB02307047501B00204B
:10A5C000264B5B68C3F3080310B4FBB9EFF31183A8
:10A5D000E3B9234B4FF0E02CD3F8C826DCF8180081
:10A5E000D3F8C8168A42F7D1D3F828178842F3D88F
:10A5F000D3F820474FF47A7101FB04F3181AB0FB2B
:10A60000F4F05DF8044B01FB02007047EFF3118199
:10A61000102383F312884FF0E022C9B294691369C2
:10A6200013F4803F0E4B1EBF0120C3F8240794692A
:10A63000D3F8C806D3F8242781F31188D3F820175C
:10A640004FF47A73024403FB01F0001B5DF8044BE6
:10A65000B0FBF1F003FB0200704700BF00ED00E02B
:10A66000501B00202DE9F04F037D02681F2B83B0A3
:10A67000044609D95068A3F120052021A9400142D0
:10A6800007D103B0BDE8F08F106820219940014246
:10A69000F7D04749474D4968E769C5F8FC1A8C214E
:10A6A00001FB075195F86CC9D1F810050668BCF19B
:10A6B000000F18D1D1F88805B1F814C5016821F050
:10A6C00001010160B18989B221EA0C01B1812978C7
:10A6D000B9B91F2B60D9A3F1200120238B40D3608F
:10A6E00003B0BDE8F08F0069016821F0010101604D
:10A6F000B18921F480710904090CB18129780029FC
:10A70000E7D04FF08C0808FB07F805EB080301932E
:10A71000D3F888A5DFF8A0B050465BF0EFFD019BB1
:10A72000012283F85C25D5F8043B08F11809D944C7
:10A73000002B38D033889BB243F08003338008F17C
:10A7400074084FF0FF330BEB0801F36230465BF007
:10A7500037FF8C2303FB0757494600235046C7F8B1
:10A760002C355AF075F9D7F8883516225A601A68D0
:10A7700042F001021A60D7F81025B7F814351268B4
:10A7800091890B439BB293810949237D49682268D3
:10A79000C5F8001B1F2B9ED8202101FA03F39360FC
:10A7A00003B0BDE8F08FFFF70BFFC5F8040BC1E75E
:10A7B000001000E0040000100C0500102DE9F04F1F
:10A7C000AA4D2B7887B01BB9012007B0BDE8F08FE8
:10A7D000A74BA849D3F8C826A74BA1FB02125209E0
:10A7E000A3FB0213DB0803EB8303A2EB430395F8FF
:10A7F000302A029205F60834DAB2059204EB830798
:10A8000005F6E85905F5816B4FF0000A029B9A4561
:10A8100064D0DBF8183093F8F220002A51D1D3F835
:10A82000E820DBF80410D3F8EC8003920191FFF7E5
:10A83000C7FE01998E4B039A93F88DE093F87AC87E
:10A840000490890001F1085101EB421108F1806088
:10A85000393801EB8C13BEF1540F01EB80101E460A
:10A8600003D1834BA3F896C03346984218D91A688F
:10A87000002A48D01A6C002A00F08781D3F8802083
:10A88000002A00F08581D3F8C02003F58073002AE8
:10A89000EBD11E46711AB04233464FEAA1123AD8A4
:10A8A000BCF1000F04D0724B0CF1FF3C83F87AC866
:10A8B000BEF1540F05D16E4AB2F892300133A2F8BE
:10A8C00092300AF1010ABAF1080F04F15C0407F1B1
:10A8D0005C0709F114090BF1200B97D16A68012379
:10A8E000002A85F8EC3E7FF76FAF644B002103EB45
:10A8F000022283F8F21003F580739342F9D101200C
:10A9000007B0BDE8F08F40331E46711AB04233469F
:10A910004FEAA112C4D9A8EB020145294FF0000863
:10A9200028BF45214046019406EB811144469446D8
:10A93000F04603960DE01A6C002A40F0DB80D3F855
:10A940008020002A40F00581D3F8C02003F58073F1
:10A950002AB9994206D91A68002AECD040339942A4
:10A9600000F2CC80C646A046B8F1110F019C6246A9
:10A970009ED9D8F115019BD4414B1E46D3F8CC305B
:10A980009C4538BF3346049E38BFC3F8CC20384BB3
:10A99000D3F87C38F21A002A1BDB03F5F42303F505
:10A9A00090739E4288BF3346314A88BF0533C2F850
:10A9B0007C38334B2E4AD3F8CC30052B86BF053B71
:10A9C000DBB2002382F87A382D4A4FF0FF33C2F809
:10A9D000CC3041B1C8F11408012300FA01F103FAA7
:10A9E00008F343EA0100274AC0F3C43302EB8303B0
:10A9F0001646D3F8BC1D00F01F0302EB8303D3F807
:10AA0000BC2D42EA0132C0F3441106EB8101C0F3D0
:10AA1000842306EB8303D1F8BC1DD3F8BC3D42EA86
:10AA2000011141EA032181EA112383EA131303F0A0
:10AA30000F02D5F8F03D0F2A03F1010324D1B1F53F
:10AA4000803F21D2BEF1540F4FEA111105D10848C1
:10AA5000B0F890200132A0F89020B1F5606FC5F8F1
:10AA6000F03D00F09E80A9F80C101FE004000010DB
:10AA7000501B00201F85EB51CDCCCCCC0C0000101E
:10AA80008801002090310708BEF1540F05D14D49CF
:10AA9000B1F890200132A1F89020C5F8F03DD5F82A
:10AAA000EC3D0133C5F8EC3D4FF6FF7194F858309A
:10AAB000059883420CD0BA6823689B1A23603A6BCE
:10AAC00063689B1A63600023BB603B6384F8580093
:10AAD000236801332360BB680133BB604FF6FF730B
:10AAE00099427FF4EEAE6368013363603B6B0133E0
:10AAF0003B63E6E6803399427FF634AF039AA3EBDB
:10AB0000020E4FEAAE1E304A0EF1010E82FB0E62BB
:10AB1000A2EBEE72012AB8BF012200FA02FE144431
:10AB20000120013A904040EA0E009E46DEF80020E7
:10AB30008AB1DEF8402072B3DEF8802072B3DEF80E
:10AB4000C0200EF5807E42B17145EFD80393734665
:10AB5000FFE6C03303E70EF1400E7145F6D9AEEBC8
:10AB60000303194A9B11013382FB0362A2EBE373D7
:10AB7000012BB8BF012398401C440122013B9A409D
:10AB80007346039310437346E3E680331E46BCE6E8
:10AB9000C0331E46B9E60EF1800EDEE70EF1C00EA0
:10ABA000DBE7084A92F8A13003EB430302EBC3034F
:10ABB000534493F8B1300D2B7FF455AF802389F8BF
:10ABC0001E3073E7501B002056555555F8B51D4BE8
:10ABD00093F8A02093F8A1309A422ED11A4F7D68A5
:10ABE000002D11DD3846002410F8086B16B1037EE5
:10ABF000012B1CD002691368013443F00103A54204
:10AC000000F580701360F1D1FFF7DAFCD7F8F04E51
:10AC1000002C0BDD0D4A02EBC4041168938888896F
:10AC2000083203439BB294428B81F6D1F8BD0023D6
:10AC300080F8F030FDF7EEFDDCE764F0ABFB0028B8
:10AC4000CCD1F8BD501B002004000010F80E0010FD
:10AC5000494B5B68C3F308032DE9F0430546002B1D
:10AC600065D1EFF31183002B61D1444B4FF0E02409
:10AC7000D3F8C826A069D3F8C8168A42F8D1D3F809
:10AC800028178842F4D8D3F820674FF47A7101FB73
:10AC900006F4241AB4FBF6F401FB0244364E1027E6
:10ACA0004FF0E02C4FF47A7E4FF001087268C2F347
:10ACB0000802E2B9EFF31182CAB9D3F8C826DCF86A
:10ACC0001800D3F8C8168A42F7D1D3F8281788425B
:10ACD000F3D8D3F820970EFB09F1091AB1FBF9F16B
:10ACE0000EFB0212121BAA42E0D3BDE8F083EFF381
:10ACF000118287F31288DCF81800DCF81010C90301
:10AD000044BFC3F82487DCF81800D3F8C896D3F8FA
:10AD10002417D2B282F311884944D3F820970EFB4E
:10AD200009F2121AB2FBF9F20EFB0122DAE7EFF395
:10AD30001181102383F312884FF0E022C9B2966983
:10AD4000136913F4803F0D4B1EBF0120C3F8240785
:10AD50009669D3F8C806D3F8242781F311880244F2
:10AD6000D3F820074FF47A7101FB00F4A41BB4FB65
:10AD7000F0F401FB024491E700ED00E0501B0020DD
:10AD80002DE9F0473E4B3F4D471E10264FF0E02087
:10AD90004FF47A7C4FF001086A68C2F30802002A77
:10ADA00059D1EFF31182002A55D1D3F8C82684690E
:10ADB000D3F8C8168A42F8D1D3F828178C42F4D8B1
:10ADC000D3F820170CFB01FEAEEB040EBEFBF1FE28
:10ADD0000CFB02EE6A68C2F30802FAB9EFF31182C3
:10ADE000E2B9D3F8C8268469D3F8C8168A42F8D1E4
:10ADF000D3F828178C42F4D8D3F820970CFB09F12C
:10AE0000091BB1FBF9F10CFB0212A2EB0E02B2F529
:10AE10007A7FDFD3013FBFD2BDE8F087EFF3118225
:10AE200086F3128884690169C90344BFC3F8248783
:10AE30008469D3F8C8A6D3F82417D2B282F3118854
:10AE4000D3F8209751440CFB09F2121BB2FBF9F224
:10AE50000CFB0122D9E7EFF3118186F31288846994
:10AE60000269D20344BFC3F824878469D3F8C8E6D3
:10AE7000D3F82427C9B281F311887244A0E700BF38
:10AE8000501B002000ED00E030B50C4683B00546B5
:10AE9000D8B1036803F13F4303F57E039B0A0C4AD4
:10AEA000134493F8A4045FF08DFCC4F34112C4F37F
:10AEB0000013CDE90032C4F38103A988286804F0A7
:10AEC000030262F0D9FD03B030BD4FF0FF33E6E777
:10AED0009031070800B1D7E7704700BF70B50E4C3E
:10AEE00094F8306AB6B104F58164002504E00135B8
:10AEF000B54204F120040DD0237F002BF7D0E06889
:10AF00000028F4D0217D0135FFF7BEFFB54204F1E2
:10AF10002004F1D1012070BD04000010F0B5002420
:10AF200087B0CDE90144CDE903440DF1040CC0E93B
:10AF30003F44C0E94144C0F80C41054600F5887E15
:10AF4000BCE80F00AEE80F00CEF8004095F82931BC
:10AF5000234E0594C5F854610BB907B0F0BD1E0926
:10AF6000013E052E03F00F032DD81E4F07EB4602BE
:10AF7000B2F8F40340FA03F2D20724D5012202FA10
:10AF800003F3013B1840374468F0B8F897F83C3EAB
:10AF9000154A2946154D034405EBC3052620E880D4
:10AFA000234641F80C2F2846224662F0D7FC104970
:10AFB000AA880868B2FA82F24FF00043D3400343F4
:10AFC0000B6007B0F0BD2946074B41F80C3F00234A
:10AFD0001A46184607B0BDE8F04062F0BFBC00BF9B
:10AFE0003B43413B9031070885B200085C1C0020C0
:10AFF000003C014038B50409013C052C1AD80F4D1E
:10B0000005EB440200F00F03B2F8F40340FA03F238
:10B0100012F0010210D0012202FA03F3013B1840A2
:10B02000254468F06BF895F83C3E054A034402EB72
:10B03000C30038BD002038BD104638BD9031070828
:10B040005C1C002008B518F02DF8052807D8054B22
:10B05000D3F880380344187BBDE80840CAE70020D5
:10B0600008BD00BF501B002008B51D20FFF7C2FF20
:10B0700010B190F9063053B11E20FFF7BBFF10B19D
:10B0800090F9063003B108BD5523C38008BD552390
:10B09000C380F1E708B55CF065F91B20FFF7AAFF54
:10B0A00008B12923C3801C20FFF7A4FF08B129237E
:10B0B000C3800A4B93F88928012A01D0012008BDDA
:10B0C0000748C3F88C0800F120014C3062F02EFDD7
:10B0D000044B002083F8230008BD00BF501B002054
:10B0E0005802002000ED00E043680B4A23F0407353
:10B0F00023F4807343F48073436083681A4042F002
:10B1000002028260C36A0139C9B223F4700343EAC0
:10B110000153C362704700BFFDF7FFC0704700BF17
:10B120000020FCF77FBF00BF0120FCF77BBF00BF02
:10B130000220FCF777BF00BF10B1036882881A8332
:10B14000704700BF30B1036882881B691A4214BF80
:10B1500001200020704700BF10B1036882885A8325
:10B16000704700BFF0B5056890F888606B68848808
:10B17000012285F824201A8822F040021204120CC1
:10B180001A802A89A24255D1017BAA7A8A420BD021
:10B190001A8822F003021204120C1A801A8892B242
:10B1A000002944D01A80A9721A882F7B92B242F0EB
:10B1B00040021A802B6A9A6892B34FF0000C2F4C11
:10B1C0001433E64653F8101C964401EA040221B1F8
:10B1D000B2F1805F27D06A692AB353F8142C143374
:10B1E00002EA040112B1B1F1805F1CD053F80C2CBB
:10B1F0000CF1010C002AE5D1AFB1A6B1BCF1010FF1
:10B200000AD8BEF1070F07D80CEB8C0C4FEA8C0262
:10B210002B6A13441B7B33B9BDE8F04059F046BCA0
:10B220000FB1002EF4D1BDE8F04059F0C5BE42F098
:10B230000302B7E71A88124922F0380212048B423F
:10B240004FEA124217D001F580618B4213D021469C
:10B25000B1F5807FA8BF4FF480710229B8BF0221E9
:10B2600091FAA1F1B1FA81F1013942EAC10292B237
:10B270001A802C8188E76108EAE700BF0000FFFF21
:10B280000038004038B52C4AD0F8E8305268D0F881
:10B29000E010044673B1501A83420BDC94F8D830A6
:10B2A000C4F8E020012B10D0D4F8DC300133C4F80E
:10B2B000DC3038BDD4F8EC30C4F8E0200B44C4F8DE
:10B2C000E43094F8D830012BEED16168201D04F1F0
:10B2D000F005EFF3118C102383F3128863681B6A67
:10B2E0000BB3D4F8F8302A461BB1D3691432002BC3
:10B2F000FBD10B6A6BB1996839B9934209D01968CF
:10B3000029B15B6899680029F7D01433F3E7C3E9E2
:10B3100000055FFA8CFC8CF31188D4F8DC30013323
:10B32000C4F8DC3038BD0D625FFA8CFC8CF31188F8
:10B33000FFF718FFB8E700BF001000E02DE9F0416B
:10B34000826992F8E430012B8AB005465BD0023B5B
:10B35000012B54D892F85431D2F89C203B4C63F026
:10B360007F0313708769D7F8A030D7F8108003F1F6
:10B37000010E0FCCEC46ACE80F00D7F89C30CDE9BD
:10B38000003E0FCCACE80F0094E8030007F1100674
:10B390008CE80300EFF31180102383F312883B69DC
:10B3A0001B6A002B49D0029B6A461BB1D369143239
:10B3B000002BFBD1D8F8203073B1996839B993428A
:10B3C0000AD0196829B15B6899680029F7D014334D
:10B3D000F3E71E60C3F804D0C0B280F31188A969F6
:10B3E0000A69136A002BFCD1D1F8A0305A8852BAEE
:10B3F000EA819A8852BA2A82DB885BBA6B82012082
:10B400000AB0BDE8F08192F8570192F85431D2F8B1
:10B41000A0101B1A5B100133DBB201EB430231F8C1
:10B4200013305BBAEB8153885BBA2B82938801207F
:10B430005BBA6B820AB0BDE8F081C8F820D0C0B218
:10B4400080F311883046FFF78DFEC8E7D43F070828
:10B450002DE9F04190F8E430D0F8A050012B8AB0EB
:10B46000044673D041D9023B012B6BD890F855317B
:10B47000D0F89C206A4E63F07F031370D0F8A030A0
:10B48000D0F8108003F1010E00F110070FCEEC464A
:10B49000ACE80F00D4F89C30CDE9003E0FCEACE80C
:10B4A0000F0096E803008CE80300EFF311801023EF
:10B4B00083F3128823691B6A002B00F0A880029B8B
:10B4C0006A461BB1D3691432002BFBD1D8F8203067
:10B4D0002BB3996839B9934221D01968E1B15B68FF
:10B4E00099680029F7D01433F3E7D0F89C304FF077
:10B4F000FF321A605A609A60DA60D0F8E8300522AC
:10B50000B3F57A7FC0F8F82054D8032380F8E430EC
:10B5100001200AB0BDE8F0811F60C3F804D0C0B2BA
:10B5200080F311882269136A002BFCD16B885BBA07
:10B53000A4F8D030AB885BBAA4F8D230EB885BBA01
:10B54000A4F8D43001200AB0BDE8F08190F857117A
:10B5500090F8553190F85621D0ED366AD0ED377A13
:10B560005B1A5B100133DBB2521A35F8131005EB8E
:10B57000430349BAA0F8D010598849BAA0F8D210AC
:10B580009B8852100132D2B25BBAA0F8D43035F8A1
:10B590001230DBBA07EE103AB8EEC77AE7EE267A39
:10B5A000FDEEE77A17EE903AA0F8D63001200AB007
:10B5B000BDE8F08103691A7B2AB35B691BB390F87D
:10B5C000983003B390F85731D0F89C20C4F8A40009
:10B5D00063F07F03137090F8571190F85531D0F84D
:10B5E000A0201048C4F80C015B1A07330121C4F8ED
:10B5F0000431D4F89C3084F808110A44C4E93F327D
:10B6000084F8E4109EE7022384F8E4309AE7C8F84F
:10B6100020D0C0B280F311883846FFF7A3FD81E740
:10B62000D43F070801800008D3B2012B1DD8104B6E
:10B6300002EB420210B54FEA820E0EF1080403F548
:10B64000137C02E01C3363450DD01A788242F9D195
:10B650005A788A42F6D11A59002AF3D00EF1040E14
:10B6600003EB0E0010BD002010BD0020704700BF8E
:10B67000FC3F070810B40C4C002304F5096C01E0F2
:10B68000152B0CD003EB430201331CF8021081424E
:10B69000F6D1144494F992085DF8044B70474FF0CA
:10B6A000FF305DF8044B7047501B0020D3B2022BD3
:10B6B00022D870B502EB4202104C4FEA820E2346AC
:10B6C0000EF10C05002204E00132172A03F12C03CD
:10B6D00010D01E68B042F7D193F804C08C45F3D166
:10B6E0005E59002EF0D02C210EF1080301FB02332D
:10B6F000E01870BD002070BD002070479031070831
:10B70000002839D030B51D4D90F804C0002305F550
:10B71000096401E0152B2DD003EB43020133A15C3A
:10B720006145F7D11544046895F9923890F805E021
:10B73000DAB2022A1ED803EB430311484FEA830C06
:10B740000CF10C050346002204E00132172A03F134
:10B750002C030FD019688C42F7D119797145F4D1B7
:10B7600059590029F1D02C210CF1080301FB0233B7
:10B77000184430BD002030BD704700BF501B002072
:10B78000903107080348D0F8483113B100F59C7098
:10B7900018477047880100200348D0F8743113B16E
:10B7A00000F5B27018477047880100200348D0F8B0
:10B7B000A03113B100F5C870184770478801002008
:10B7C0000348D0F8CC3113B100F5DE70184770474C
:10B7D000880100200348D0F8F83113B100F5F47067
:10B7E00018477047880100200348D0F8243213B16D
:10B7F00000F5057018477047880100200348D0F80D
:10B80000503213B100F510701847704788010020BE
:10B810000348D0F87C3213B100F51B70184770470D
:10B82000880100200348D0F8A83213B100F5267033
:10B8300018477047880100200348D0F8D43213B16C
:10B8400000F5317018477047880100200348D0F890
:10B85000003313B100F53C70184770478801002091
:10B860000348D0F82C3313B100F5477018477047E0
:10B87000880100200348D0F8583313B100F5527006
:10B8800018477047880100200348D0F8843313B16B
:10B8900000F55D7018477047880100200348D0F814
:10B8A000B03313B100F56870184770478801002065
:10B8B0000348D0F8DC3313B100F5737018477047B4
:10B8C00088010020094B01382C2202FB0033084A72
:10B8D000D3F838310748116B834214BF4FF480030B
:10B8E0004FF400130B431363704700BF880100201F
:10B8F000003802400060024070B53E4C3E4D0138B9
:10B900004FF02C0C0CFB004C9646DCF838613B4A9F
:10B91000AE4214BF4FF480054FF40015166B35434B
:10B920001563CCF8543102F52052DCF83C31CCF8E8
:10B930004811103293423ED002F5806293423AD0D1
:10B94000A2F57A72934248D002F58062934244D0C5
:10B95000A2F57A72934242D002F5806293423ED0C1
:10B96000A2F57A72934236D002F58062934232D0C9
:10B97000A2F57A72934234D002F58062934230D0BD
:10B98000A2F57A7293422ED002F5806293422AD0B9
:10B99000A2F57A72934228D002F58062934224D0B5
:10B9A000A2F57A72934222D0154D02F5806293423D
:10B9B00018BF002500E0134D2C2303FB0044CEF3F9
:10B9C000011294F85001C4F85C51CEF38711BDE820
:10B9D000704061F09FBF0C4DEEE70C4DECE70C4D55
:10B9E000EAE70C4DE8E70C4DE6E70C4DE4E7044DC3
:10B9F000E2E700BF880100200060024000380240FA
:10BA000000800028208000100080001800880010AE
:10BA1000008020102080002000880020008020204E
:10BA20002DE9F04F934A92F8E138012B85B021D0EF
:10BA3000022B15D0002300938F4F4FF0000807F121
:10BA4000780A3B78022B17D008F10108B8F1030FF0
:10BA500007F128070AF1050AF3D105B0BDE8F08F18
:10BA600092F8D63833B192F8D238083B18BF012388
:10BA70000093E1E70093DFE79AF903307F4D0297E7
:10BA8000591C15BFDBB200239B464FF0010B1E462D
:10BA9000DAB2012A00F2DB8006EB4601890073006E
:10BAA000774C019308315FFA88F703E01C34AC420D
:10BAB00000F0CD802378002BF8D16378BB42F5D11C
:10BAC00060580028F2D011F031FF009B814623B16D
:10BAD000A0F10901072940F2BF807A1CD2B21421DB
:10BAE000484611F00DFF002800F0B180DDE9013774
:10BAF000334404EB830409F1FF33E068614C59429D
:10BB00004FF02C0203FB02F201F0070103F00703E0
:10BB100058BF4B42A11804F59C742244C1F844015B
:10BB20003A61484681F84031FFF7CCFE9AF904307B
:10BB30005A1C00F09A80DEB23246CDE902794F4DB0
:10BB4000F3B29346012B62D806EB460189007300DD
:10BB50004B4C019308315FFA88F902E01C34AC4287
:10BB600055D02378012BF9D163784B45F6D1605835
:10BB70000028F3D011F0DAFE009B07461BB1A0F1BC
:10BB80000901072947D909F10102D2B21321384628
:10BB900011F0B6FE00283AD0BB46DDE90127324459
:10BBA00004EB82040BF1FF325142E068354CDDF8C2
:10BBB0000C904FF02C0502FB05F501F0070102F097
:10BBC000070258BF4A42611904F59C742544C1F824
:10BBD00044017D61584681F84021FFF773FEB9F1B9
:10BBE000000F3DD0BBF1000F1BD02846FCF734FC02
:10BBF0003869FCF731FC3846FCF7FEFB00231A4697
:10BC000021495846FFF778FE01233B731CE70136B4
:10BC1000F3B29B4596D2DDE90279B9F1000F1FD04E
:10BC20001A4C09F1FF332C2202FB03400024386137
:10BC30007C61FCF711FC3846FCF7DEFB2346144917
:10BC400022464846FFF758FE01233B73FCE60136C7
:10BC5000F2B29345BFF41DAF029F4FF0000965E7B4
:10BC600000220023C7E90423EEE601231A4600263A
:10BC700063E700BF501B002048240020484207080B
:10BC8000FC3F0708880100204D9E0008C0020020EC
:10BC9000C59E00080C4A0D4903469342D1F808019D
:10BCA00010D0A2F5806293420CD002F580429342FC
:10BCB00008D002F58062934204D002F5806293427C
:10BCC00018BF4008704700BF00040140501B00200F
:10BCD000064A136851690B4003F00103536123B115
:10BCE000034BD3F82C07036818477047003C01400A
:10BCF000501B0020064A136851690B4003F00203F1
:10BD0000536123B1034BD3F83007036818477047DA
:10BD1000003C0140501B0020064A136851690B404B
:10BD200003F00403536123B1034BD3F834070368D2
:10BD300018477047003C0140501B0020064A13681A
:10BD400051690B4003F00803536123B1034BD3F84F
:10BD50003807036818477047003C0140501B00201B
:10BD6000064A136851690B4003F01003536123B175
:10BD7000034BD3F83C07036818477047003C014069
:10BD8000501B0020F8B50C4B1D685A69154005F48E
:10BD900078755D617DB1094F0126B5FA85F4C4F16E
:10BDA0001F0407EB840306FA04F4D3F82C07036896
:10BDB0009847A543F1D1F8BD003C0140501B00203D
:10BDC000F8B50C4B1D685A69154005F47C455D615A
:10BDD0007DB1094F0126B5FA85F4C4F11F0407EBC4
:10BDE000840306FA04F4D3F82C0703689847A543A4
:10BDF000F1D1F8BD003C0140501B0020F0B50546D4
:10BE000083B0A0B307681D4B144607F13F4202F50B
:10BE10007E0203EB92230E4693F8A4045EF0D2FC5C
:10BE2000A988B1FA81F3C3F11F03C3F3CC0207EB76
:10BE3000820203F00703156A4FF00F0C9B009C4031
:10BE40000CFA03F325EA03031362136A1C4314621A
:10BE5000C6F30013C6F34112CDE900323846C6F3EB
:10BE6000810306F0030261F007FE03B0F0BD034B4F
:10BE700093F8A3045EF0A6FC2B68FFDE9031070860
:10BE800000B1BBE7704700BF2DE9F047684E06EBF5
:10BE90000013D3F88049002C76D093F888790546B2
:10BEA0004FEA001838465EF08DFC07F01F027F094C
:10BEB0000123032F03FA02F372D0042F6BD0022F59
:10BEC00064D006EB0803013593F88409FFF792F874
:10BED000EDB2824610B11223C571837106EB0803DF
:10BEE00093F88509FFF786F8814610B11323C571D1
:10BEF000837106EB080393F88609FFF77BF8074682
:10BF000010B11423C571837106EB0803504693F8F2
:10BF100087594A212A46FFF7B3FF2A4648462A2175
:10BF2000FFF7AEFF2A460A213846FFF7A9FF414B2B
:10BF30009C423AD0404B9C4242D0404B9C424AD01B
:10BF40003F4B9C4252D03F4B9C425AD03E4B9C426E
:10BF500062D0A38823F003031B041B0CA380238857
:10BF600003F4415343F4457343F003032380A38B4D
:10BF700023F400631B041B0C0722A3832282238863
:10BF80009BB243F040032380BDE8F0872F4A516AFB
:10BF90000B43536295E72D4A11690B43136190E7F8
:10BFA0002A4A116A0B4313628BE703F584335A6AFA
:10BFB00042F480525A625A6A22F480525A62C8E7A6
:10BFC00003F500331A6A42F480421A621A6A22F4B4
:10BFD00080421A62BDE703F5FE331A6A42F400425A
:10BFE0001A621A6A22F400421A62B2E703F5823337
:10BFF0005A6A42F400525A625A6A22F400525A6251
:10C00000A7E703F568435A6A42F480125A625A6AF3
:10C0100022F480125A629CE703F564435A6A42F4A0
:10C0200000125A625A6A22F400125A6291E700BF63
:10C03000501B00200030014000380040003C004010
:10C0400000340140005001400054014000380240DB
:10C05000431C00F069812DE9F04F2C23DFF8C484E4
:10C0600000FB03F385B058F803B0064608EB030263
:10C07000BBF1000F07D0D2E9024A002C00F01E816C
:10C0800094F9062012B105B0BDE8F08FBAF1000FA7
:10C0900000F074819AF90620002AF4D1183308EBD5
:10C0A0000300DBF8049048F80320711CC0E901226A
:10C0B000C0E903221523A371C9B21623E1718AF8DE
:10C0C00007108AF806309BF828005EF07BFBB9F871
:10C0D00004302268A08823F440731B041B0CA9F8C9
:10C0E0000430DAF800301083BAF804201A831121E2
:10C0F0002046FEF7C9FE11215046FEF7C5FE09276E
:10C10000332524B908E1013D08D0FEF7A1FD2368DD
:10C11000A28819690A424FF00A00F4D05A83052018
:10C12000FEF796FD2368A2881A830520FEF790FD8E
:10C13000013FE5D1002C00F04481332503E0013DAF
:10C1400008D0FEF785FD2368A28819690A424FF0DE
:10C150000A00F4D05A830520FEF77AFDBAF1000FE9
:10C1600000F05B81DAF80030BAF804205A83052029
:10C17000FEF76EFD2368A2881A830520FEF768FD8E
:10C18000DAF80030BAF804201A830520FEF760FDC3
:10C190002368A2881B691A4240F0C7802C2303FB46
:10C1A0000683997C1A7C002940F0CA80204612211F
:10C1B000FFF724FE12212C2303FB06835A7C5046F2
:10C1C000FFF71CFED14B994500F04481D04B9945B7
:10C1D00000F04B81CF4B994500F05881B9F80430FD
:10C1E00023F440731B041B0CA9F80430B9F8003089
:10C1F0002C2202FB06829BB243F00103948AA9F829
:10C200000030B9F804504FF47A73684603FB04F425
:10C2100025F03F055AF030F80299BF4B2D04A3FBDF
:10C2200001232D0C45EA9345A9F80450B9F80020E4
:10C2300022F001021204120CA9F80020B74A980C4F
:10C240009442034600F382806200B1FBF2F292B2A4
:10C250000133042A38BF0422A9F82030A9F81C2091
:10C26000B9F800309BB243F00103A9F80030B9F8E7
:10C27000003023F4816323F002031B041B0C4FF4F2
:10C28000804143F48063A9F80030A9F80810B9F898
:10C29000003023F080031B041B0C0022A9F800309F
:10C2A0009BF82A00114661F035FB00229BF829001B
:10C2B000114605B0BDE8F04F61F02CBBBAF1000F9C
:10C2C00000F0F9809AF90620002A7FF4DCAE1833DA
:10C2D00008EB0302DBF8049048F80340C2E901448C
:10C2E000C2E9034416238AF80630731C8AF8073023
:10C2F0009BF828005EF066FAB9F80430BAF804201A
:10C3000023F440731B041B0CA9F80430DAF8003046
:10C310001A83F0E6FEF79CFC013D4FF00A00F9D1CC
:10C320000520FEF795FC00E770472C23DAF8002083
:10C3300003FB068312699A7C002A00F0A1801A7C14
:10C3400032212046FFF75AFD322134E704EB440442
:10C35000B1FBF4F18AB2C1F30B0109B942F0010259
:10C360006F494FF4967300FB03F3A1FB03139B0982
:10C37000013342F40042A9F820306FE7183308EB8C
:10C380000302DBF8049048F803A0C2E901AAC2E95D
:10C3900003AA1523A371431CE3719BF828005EF0E8
:10C3A00011FAB9F80430A28823F440731B041B0C63
:10C3B000A9F80430236811211A832046FEF764FD92
:10C3C0009DE6332401E0FEF743FC013C4FF00A00F8
:10C3D000F9D10520FEF73CFCBAF1000F61D0DAF884
:10C3E0000030BAF804205A830520FEF731FC0520FE
:10C3F000FEF72EFCDAF80030BAF804201A83052084
:10C40000FEF726FC2C2303FB06839A7C002A18BF28
:10C4100032215A7C08BF1221D1E60520FEF718FC14
:10C420002368A2881A830520FEF712FC0520FEF778
:10C430000FFC2368A2881B691A4254D12C2303FBEA
:10C440000683997C1A7C00295BD020463221FFF7B5
:10C45000D5FCB7E603F5F2331A6A42F400121A6209
:10C460001A6A22F400121A62B8E603F5F0331A6A67
:10C4700042F480021A621A6A22F480021A62ADE65D
:10C480001A7C20461221FFF7B9FC93E603F5EE3340
:10C490001A6A42F400021A621A6A22F400021A624C
:10C4A0009CE60520FEF7D4FB0520FEF7D1FB052016
:10C4B000FEF7CEFB86E6183308EB0302DBF80490A8
:10C4C00048F803A0C2E901AAC2E903AA9BF8280020
:10C4D0005EF078F9B9F8043023F440731B041B0CA8
:10C4E000A9F804300BE62C2303FB068320469A7C34
:10C4F000002A18BF32211A7C08BF1221FFF77EFCE8
:10C5000060E620461221FFF779FC5BE6005400400C
:10C5100000580040005C004083DE1B43A086010001
:10C52000D34D6210501B00202DE9F0410646FEF766
:10C530001DF8104F2C24054604FB067442F20F78B8
:10C5400004E0FEF713F8401B404507DC637E002B38
:10C55000F7D1207E80F00100BDE8F081B7F8B03956
:10C56000013330469BB2A7F8B039FFF771FD0020C8
:10C57000BDE8F081501B002010B582B004468DF854
:10C5800007300DF107035EF081F808B902B010BD65
:10C590002046FFF7C9FF02B010BD00BFB0F1FF3F5A
:10C5A00061D02DE9F04F022883B0044612DC2F4FF2
:10C5B0002C2600FB06F69946BB19D3F804B0BBF154
:10C5C000000F07D00D46597E0193924601F0FF02FD
:10C5D000009219B1002003B0BDE8F08FFDF7C6FF4F
:10C5E0002036019B009A6D00EDB28046B8199D7609
:10C5F00001210C9D83F81BA05A779977BD514560A6
:10C6000083F81C9059761A76BBF8043099051ED42D
:10C61000BBF80030DA0513D442F20F7505E0FDF7E0
:10C62000A5FFA0EB0803AB4213DCBBF800309B0571
:10C63000F5D4BBF800309BB243F48073ABF8003004
:10C64000BBF804309BB243F44073ABF804300120D4
:10C65000C1E7B7F8B03901339BB22046A7F8B0392B
:10C66000FFF7F6FCB6E70020704700BF501B002024
:10C670002C2330B500FB03F3254DEA18EB585C681A
:10C68000A38A85B09BB20393039B13F4706F1CBF06
:10C6900001231376039B13F4E06F0CD1A38A2C22A1
:10C6A00023F4706302FB00551B041B0C0022A382C1
:10C6B0006A7605B030BD238BA38823F480631B0406
:10C6C0001B0CA380039B9A05E8D423889B05E5D423
:10C6D0002388D9050FD52388DA05FCD423889BB29B
:10C6E00043F40073238023889B05FCD40190FFF75B
:10C6F000AFFC0198D2E723889BB243F400732380F8
:10C70000A38823F440731B041B0CA380C6E700BF5F
:10C71000501B00200020ABE70120A9E70220A7E77B
:10C7200070B590F871301D09013D052D044611D8F2
:10C730001C4E06EB450203F00F03B2F8F41341FA66
:10C7400003F2D20706D590F87220012AD0B205D0A4
:10C75000012070BD94F872300120FAE7984001384A
:10C760002E44084066F0CAFC96F83C3E0E4A03444C
:10C7700002EBC30552F83320AB8810691840E8D0AB
:10C78000E36E002284F8722093F8212002212846CB
:10C79000FFF734FB226E93899BB243F00803938129
:10C7A000D6E700BF903107085C1C0020F8B50E4C9E
:10C7B00094F8307A9FB104F5A164C7F109070925FF
:10C7C000013D0ED0A6683079FEF714FC217DF27988
:10C7D00008B1FFF713FBAF4204F18C04F0D1012044
:10C7E000F8BDAB68FFDE00BF04000010094BD3F8B2
:10C7F000B429D3F8B81940F22A40002350604B62A4
:10C800000B889BB243F001030B80136843F00103D4
:10C8100013607047501B002010B41D4B1D48196C4D
:10C820001D4A41F08051012485B0196404625321EE
:10C83000FF24CA205462506251625B6FDB0017D440
:10C8400016480423002102910290029A1A4402928F
:10C85000029A04331C2B1160F5D103910390039BC2
:10C860000393039B0E4A1A6005B05DF8044B7047B2
:10C870000A4B002201920193019B0193019A084BFC
:10C8800012689A42DCD105B05DF8044B704700BFD6
:10C890000038024000000E420028004050280040AE
:10C8A000316665422DE9F043046ED0F80890A38903
:10C8B00023F400531B0407461B0C91B0A38190F88E
:10C8C00005803D79C8F3800005F001064FEA082293
:10C8D000B30015F002054FEA003002F4806218BF81
:10C8E00043F0080302431A43238A4FEA08319BB2FC
:10C8F00023F4405301F4005119432182A38923F406
:10C90000B05323F00C031B041B0C1343A381A38A15
:10C9100023F440731B041B0CA38201A859F0ACFC48
:10C92000684B9C4205D003F580639C4201D0039B79
:10C9300000E0049BA2896449A089120403EB8303ED
:10C940004CBF4FEA49094FEA890903EB8303B3FB64
:10C95000F9F3A1FB03C252094FF0640C00040CFB75
:10C9600012334FEA021200F193801B013233A1FB14
:10C970000313C3F343131A4392B2228197F9380089
:10C98000FEF760FB30B10368828818F0010F14BF16
:10C990001A835A8318F0080FA38A73D09BB243F00E
:10C9A0000803A382A3899BB243F40053A381002E02
:10C9B0002FD0FE6B002E78D00023CDE90833CDE9CF
:10C9C0000C33CDE90E33049306937B6C0193FB6D1E
:10C9D0000293FB6805937B6903934FF480714FF4D6
:10C9E0008033CDE90A1330464FF48063079359F042
:10C9F00085FC01A9304658F02BF8336843F0010359
:10CA00003360A38A9BB243F04003A38273689BB256
:10CA10007B65002D33D03E6C002E41D0BB6C019362
:10CA2000BB6D02933B690593402304934FF480331D
:10CA3000002530460B934FF480630793CDE90855EA
:10CA4000CDE90C55CDE90E55039506950A9559F09B
:10CA500055FC01A9304657F0FBFF736943F0800392
:10CA60007361336843F0160333607560A38A9BB229
:10CA700043F08003A382E36843F04003E36011B016
:10CA8000BDE8F08323F008031B041B0CA38289E795
:10CA9000DB003233A1FB0313C3F342131A436BE7EA
:10CAA000E36843F08003E360E5E74FF6DF7323803C
:10CAB000E36843F02003E360E36843F01003E360BE
:10CAC000A7E700BF001001401F85EB51EFF3118372
:10CAD000502282F31288016C0A68D20703D5DBB2B8
:10CAE00083F3118870474A6892B230B4A2B9456A9C
:10CAF000846AA5421FD0846A85692C44CC60456A4B
:10CB0000846AA54211D8846A82620269121B0024D9
:10CB100092B280F864404A600A6842F00102DBB2D7
:10CB20000A6083F3118830BC7047426A846A121B22
:10CB3000446A8462EBE7012280F86420DBB283F36D
:10CB4000118830BC704700BF70B5037DC6690268AC
:10CB50001F2B054640D95068203B202199400842B0
:10CB60002CD0D16010219940D1605168D940C807BC
:10CB700052D43046FFF7AAFF96F86430C3B196F856
:10CB80007230022B14D096F872308BB996F871007F
:10CB9000FEF730FA326E938923F008031B0401215B
:10CBA0001B0C938186F8721010B12021FEF76CF9EE
:10CBB0002B7D2A681F2B194614D9203B5068082169
:10CBC0009940084200D0D1605068042101FA03F373
:10CBD000184200D0D36070BD106820249C402042D1
:10CBE0000DD11946106808238B40184200D093607D
:10CBF000106804238B401842EDD0936070BD102163
:10CC00009940946091601168D940C907B1D501215C
:10CC100001FA03F39360ACE7012101FA03F3D36057
:10CC2000A7E700BFBFF34F8F0549064BCA6802F460
:10CC3000E0621343CB60BFF34F8F00BFFDE700BF3F
:10CC400000ED00E00400FA0508B50021032059F0CA
:10CC50003FFC72B6FFF7E6FF154C08B5D4F8BC39B7
:10CC600094F8C209ABB91420FEF78AF800BFD4F8D3
:10CC7000BC395BB11A689B88116994F8C2290B40D2
:10CC800012B91BB1FFF7E0FF002BFBD0FCF79EFCB5
:10CC9000ECE719689A880B69134020B1002BE2D1A8
:10CCA0000B691340FAE7002BDDD00B691340FAE75C
:10CCB000501B002008B572B6FFF7B4FF00B583B073
:10CCC0000D49002200920091009B0C330093009BC1
:10CCD0001B68012B02D003B05DF804FB01920191A7
:10CCE000019B06490C330193019B1A600B6883F387
:10CCF00008884B689847FEE7502800400000FF1F57
:10CD000038B5FFF789FDFFF7D9FF012059F0F0FB97
:10CD10006E4A936823F003039360936813F00C0F3B
:10CD2000FBD113686949A0B943F00103136041F2D4
:10CD3000883302E0013B00F0C7800A689507F9D507
:10CD4000634C00220823C4F8C429C4F8C83902255A
:10CD50001EE043F48033136041F2883302E0013B6C
:10CD600000F0B2800A689403F9D5594C594B5A4DDA
:10CD7000B0FBF5F5B0FBF3F0B5EB400F18BF28465C
:10CD80004FF48003C4F8C439C4F8C809B5FBF0F502
:10CD90000220C4F8CC5959F0ABFB03280DD84F4BF7
:10CDA00003EBC0039988DA88C4F8D4195B88C4F807
:10CDB000D829B3FBF5F3C4F8D039444B48491A6C71
:10CDC00042F080521A640A6842F440420A609A684B
:10CDD0009A609A6842F400429A609A6842F4A052BB
:10CDE0009A60D4F8C419D4F8C8290A43D4F8D019E1
:10CDF00042EA8112D4F8D81942EA0162D4F8D4196F
:10CE00004908013942EA01425A601A6842F08072C8
:10CE10001A601A689201FCD5324A40F2057111601D
:10CE2000996821F003019960996841F00201A2F527
:10CE300080629960936803F00C03082BFAD12A49A9
:10CE4000D823B3FBF5F39B0143F000530120C2F854
:10CE500084308866FBF73CFE244D1C4B244AEA6074
:10CE6000596F244AC4F8DC19AA605A6B224922F08F
:10CE700080025A635A6F42F080725A671A6B42F40A
:10CE8000CE021A635A6B5A639A6B9A631A6C0A43FE
:10CE90001A64596C194A0A435A64FCF707FC184A89
:10CEA000D4F80831A2FB03239B09013BB3F1807F37
:10CEB00009D24FF0E022F02053610021072385F8CA
:10CEC00023009161136138BD014CC5E70038024071
:10CED000501B002080841E0040420F00484207087B
:10CEE00000700040003C02400000474200ED00E0BE
:10CEF0000005FA0500000020FFC9FE36335F070079
:10CF0000D34D621030B50068154C164D85B001390F
:10CF1000002389B2A042ADF80C30ADF806308DF890
:10CF20000E300291D5F808310FD00F4988420CD04D
:10CF300001F58041884208D001F58061884204D023
:10CF400001F58061884218BF5B08B3FBF2F301A9C9
:10CF5000013BADF8043059F0DBFA05B030BD00BF3D
:10CF600000040140501B00200000014038B5044679
:10CF7000FFF7C8FF2168154D0A8892B242F00102FE
:10CF8000002305F634500A8050F83320914207D030
:10CF900001330E2BF8D1BDE838400020FBF796BCDA
:10CFA00005EBC30595F8394D2046FBF78FFC1B2C8C
:10CFB00006D02E2C09D1BDE838402C20FBF786BCCA
:10CFC000BDE838401920FBF781BC38BD9031070817
:10CFD00070B50468A30AA3F58013522B50D8364DC0
:10CFE0002B4493F800C4BCF10D0F49D843790220BB
:10CFF00023FA00F50CEB8C03A8400CEB43031FFA5B
:10D0000080FE2B44002949D0A5892C48ADB200EB05
:10D01000830645EA0E05C6F81014C6F82024A5813B
:10D02000EFF31186502383F312882C2202FB0C03AA
:10D03000D3F80C1461B3C3F83014214B04310CEB5A
:10D040008C02204D0CEB4202920005EB020E1032D6
:10D05000134453F8042F0AB10A60111D7345F8D127
:10D060000022F3B20A6083F311882C2303FB0C0027
:10D07000D0F830342BB1A3899BB243F00103A381D4
:10D0800070BDA38923F001031B041B0CA38170BD99
:10D090000B4B02FB0C3202F12401D0E7A08980B2D5
:10D0A00020EA0E00A081054800EB8305C5F81014A6
:10D0B000C5F82024B4E700BF90310708501B0020BA
:10D0C0005C1F00207C1F002001490248FCF7BEBC09
:10D0D0005C1F00200000014010B5064C064804F219
:10D0E0000C41FCF7B3FC04F5B3610448BDE8104003
:10D0F000FCF7ACBC501B0020000001400044014084
:10D1000002494FF08040FCF7A1BC00BF881F0020FF
:10D1100001490248FCF79ABCB41F002000040040FB
:10D1200001490248FCF792BCE01F002000080040C3
:10D1300001490248FCF78ABC0C200020000C00408A
:10D1400001490248FCF782BC902000200004014005
:10D1500010B5064C064804F5A861FCF777FC04F20C
:10D160001C610448BDE81040FCF770BC501B002057
:10D1700000040140001C004001490248FCF766BC65
:10D18000BC2000200040014001490248FCF75EBC81
:10D19000142100200048014001490248FCF756BC18
:10D1A000402100200018004001490248FCF74EBC15
:10D1B000982100200020004010B50C2935D8DFE868
:10D1C00001F091343434633434340734343435006A
:10D1D000038C5488B2F80CE023F480731B041B0CFE
:10D1E0000384038CB0F804C0818B21F073014EEAF4
:10D1F000040E0904148823F40073090C1B04214352
:10D20000764C1B0C43EA0E23A0421FFA8CFC9BB207
:10D2100000F0948004F58064A04200F08F80926852
:10D22000A0F804C08183C263038410BD038C5488BA
:10D23000B2F80CE023F480531B041B0C0384038C12
:10D24000B0F804C0818B21F4E6414EEA040E0904D3
:10D25000148823F40053090C41EA04211B045F4C99
:10D260001B0C43EA0E33A0421FFA8CFC9BB289B21E
:10D270007ED004F58064A0427AD09268A0F804C001
:10D2800081830264038410BD038C5488B2F80CE0DF
:10D2900023F010031B041B0C0384038CB0F804C0A0
:10D2A000018B21F4E6414EEA040E0904148823F0B0
:10D2B0002003090C41EA04211B04484C1B0C43EADF
:10D2C0000E13A0421FFA8CFC9BB289B26CD004F5FD
:10D2D0008064A04268D09268A0F804C00183826391
:10D2E000038410BD038C5488B2F80CE023F00103D2
:10D2F0001B041B0C0384038CB0F804C0018B21F0C9
:10D3000073014EEA040E0904148823F00203090C89
:10D310001B042143314C1B0C43EA0E03A0421FFAAD
:10D320008CFC9BB22CD004F58064A04228D092687B
:10D33000A0F804C001834263038410BDD489B2F80D
:10D3400010E023F4006343EA0423548A2CF4405C85
:10D350004EEA040E4CEA0E1C94884FF6FF3E03EA98
:10D360000E0E4EEA042E1FFA8CFC1FFA8EF356E7BF
:10D37000148A2CF4804C4CEA841C1FFA8CFC7CE749
:10D38000D489B2F810E023F008032343548A2CF424
:10D39000407C4EEA040E948823F004034CEA0E0C01
:10D3A0001FFA8CFC2343C2E7D489B2F810E023F0C3
:10D3B000800343EA0413548A2CF4406C4EEA040EB2
:10D3C0004CEA8E0C94884FF6BF7E03EA0E0E4EEAAE
:10D3D000041E1FFA8CFC1FFA8EF37CE7000001404C
:10D3E0002DE9F04FAC4BDFF8CC9293F8E238AB4C20
:10D3F000AB4D93B05F1E0293FBB200930023CB466C
:10D400000193DFF8B4A2DAF80070BB0AA3F5801329
:10D41000522B00F2FF80234493F800340D2B00F2CE
:10D42000F98015F90380029B012B00F0FA80029B22
:10D43000022B02D1B8F1080F6DD1002631464046CB
:10D4400010F09AFE10F026FF90F9003013B1542B23
:10D4500040F0EC800436B6B2102EEFD1019B0021D3
:10D4600013B34A460BE0234493F800340D2B0DD838
:10D47000EB5643450DD002F580725A4512D09068A4
:10D4800003689B0AA3F58013522BECD90023434574
:10D49000F1D143799AF8050098423CD002F58072A8
:10D4A0005A45ECD1002936D15046FAF7EBFFC3B20A
:10D4B000022B9AF805E000F2FF8200F1010C774A96
:10D4C0000CEB4C0C4FEA8C0C02F57D7003E02C3217
:10D4D000824200F0F18213689F42F8D113797345BC
:10D4E000F5D152F80C30002BF1D06E48002103E04A
:10D4F000102900F12C000ED042689A428C4601F1AE
:10D500000101F5D1684B2C2202FB0C3C9CF95831EF
:10D51000002B00F09B82654B0AF11C0A9A457FF4B0
:10D5200072AF019B0133042B01930BF5807B7FF4D9
:10D5300068AF5F4A92F8303A013302F5816802938E
:10D540004FF0010B029B9B4561D0534BD8F80C6008
:10D5500093F8E02998F810300193002E57D0544BDF
:10D56000D6F800A05868B38800930AF13F4505F546
:10D570007E0500284FEA952561DD002302E0013396
:10D58000834259D01C0259F80410A942F7D14C44E7
:10D59000019B88F81030009BC8F80C60B3FA83F543
:10D5A000C5F11F034FF00302C8F80430C8F8184053
:10D5B000B27186F807B0E16C606C5E00012203274F
:10D5C000B74002FA06F63143E16439490E78384330
:10D5D00002FA03F36064276DD4F8A00099B2002E1C
:10D5E00000F027823B432365009BAAF81830FAF726
:10D5F00083FF20460BF1010BFBF70CF940F20113FE
:10D60000BBF1090FA8F81C3008F120089AD113B01B
:10D61000BDE8F08F009B012B7FF67DAF4FF0000837
:10D620000BE7B8F1010F3FF408AF74E7019B01214C
:10D63000002B7FF416AF6EE7042B00F00A821C4B20
:10D6400003EB00230102059119690391002900F001
:10D6500026826C1C0492E4B24FF054029D6083F861
:10D66000042183F80541124B01305860039B5D791A
:10D670001F6806951846FAF705FFC3B2022B00F2A1
:10D680001B8200F1010C0CEB4C0C044B049A4FEA8A
:10D690008C0C0021AE4617E0501B0020903107088B
:10D6A00030D60708C0020020880100206443070824
:10D6B000040000100C00001068420708013117290F
:10D6C00003F12C0300F0F8811D68AF42F6D11D79FB
:10D6D0007545F3D153F80C50002DEFD02C2300EBFF
:10D6E000400001FB03F37649764F03EB80030B44C4
:10D6F00005981969744B0A910344C3E9065194468D
:10D700000023394604E0102B01F12C013FF47FAFD8
:10D710004A68AA42184603F10103F4D16B4B049501
:10D720002C2101FB0031624691F95831002B7FF426
:10D730006EAF059D664881F85941EB1103EB252337
:10D7400003EB031300EB83038C2408932B1204FBDD
:10D7500003F300F54C7000EB430009905A4843195D
:10D760000898C3F8A8000998C3F8F000542081F87D
:10D7700058013321C3F8AC100399C3F8F440C3F83F
:10D780000CA008685349544B07908842D3F80831DD
:10D7900009EB050410D0A1F5806188420CD001F599
:10D7A0008041884208D001F58061884204D001F5AB
:10D7B0008061884218BF5B08062A00F05681072A5C
:10D7C0004648474A474918BF1146474A18BF0246CC
:10D7D0000598B3FBF2F2B3FBF1F33B49079D01441B
:10D7E000013A92B2013BA1F8B030A1F8682000F1F3
:10D7F00054010023A4F85C30284649F80130A265A2
:10D80000494458F085FE0023ADF838302B8806993E
:10D810009BB243F080032B802B8823F001031B0471
:10D820001B0C2B80314B0D9328464FF4807302253F
:10D83000CDE910530DAA0A230F93FFF7BDFC039BFC
:10D840001879002840F01481079A049D13889BB230
:10D8500043F001031380002004E0102807F12C0797
:10D8600000F0FE807B689D42024600F10100F4D189
:10D87000049516491E4F049DDDF81CC02C2303FBA4
:10D8800002131C4AD3F838311B498B4214BF4FF4A2
:10D8900080034FF40013116B0B431363069A0C2A99
:10D8A0009CBF164B03EB4203059A98BFB3F8DC10FC
:10D8B000054B134488BF00219982002327E000BF55
:10D8C00090310708C00200200400001088010020E9
:10D8D0003425002000040140501B0020D0DD06004C
:10D8E000449508001055220040771B00600001009D
:10D8F000F80E00100038024000600240884207081D
:10D90000944500F0D3800133042B00F0D28057F807
:10D910003320002AF4D16A4A04951546D2F8F02E35
:10D920000132C5F8F02E05EBC302079DC2F8F45E84
:10D93000DB003B4400279A8811439980902261497B
:10D940002346FDF7D9FF04980A9D036843F01003AE
